:020000020000FC
:100000000DC0000000000000099478C0B2C00000DC
:10001000BAC00000000000000000000000240FBE75
:10002000F4E0EFE5FEBFEDBF0292E036F00509F423
:10003000EEE1E015F005C1F791B69092600094B63C
:1000400004BE80E088BB8EE087BB80E085BB80E09B
:1000500084BB80E082BB8CEB81BB82E083BF81EC00
:100060008EBDF5BDE6D003D18091850090918600CC
:1000700089569A47C1F080E48093870084E7809393
:10008000880080E48093890082E480938A0080E481
:1000900080938B008BE580938C0089E680938500AC
:1000A0008AE780938600F7D090FE04C092D096D065
:1000B0009AD007C092FE02C096D08BD091FE01C0AC
:1000C00097D0979867D184E988BF89BF789481ECED
:1000D0008EBD89B7806289BFBB2414FFFECFF2D0EA
:1000E000C0917B00D0917C002096B1F78AE0B816D1
:1000F000A0F3F8947DD07CD07BD069C246B557B5CB
:100100009EB496FE18C04093780041E84EBD5093CF
:1001100079004091630040937A0057FD189558B7D5
:1001200052FF18959FB6439540937A009FBE18954D
:10013000BF12BA941CC09FB6B1ECBEBDB0916300B3
:1001400057FD03C0F8B7F2FDB395F09178004F1B4F
:10015000F09179005F0BF0917A00BF0B4038F9E81D
:100160005F07F0E0BF07B0E018F73A0110619FBEEB
:1001700018959FB640916200415008F40E7F40935D
:1001800062009FBE18959FB64091630043954093CF
:1001900063004F7011F4BF12BA949FBE18959FB6BA
:1001A0008A9409F4EBED9FBE18959FB68A9409F4E2
:1001B000E2EE9FBE18952C93E2EE3F12E5ED832C04
:1001C00024BC1895EBED5F12EFEC852C3C9344BCFE
:1001D000189578EC90E5C29A939A0EC074EB94E669
:1001E000C19A949A09C070EA98E7C39A959A04C094
:1001F0007CE89CE8C19A939A08B215B2E2B208BAB8
:1002000015BAE2BAF2BF82B78032E8F362B3677C14
:1002100062BB68B3617F68BB60E1F2BF82B78717DA
:10022000E8F36A95D1F79A9551F7089500D000D078
:1002300000D09FE060E1F2BF81E088BF88B780FF17
:10024000FDCF6A95C1F79A95A9F70895809160004E
:1002500081BFC5E8D0E080E890E00895E199FECF45
:1002600067B760FDFBCF9FBB8EBB01960895EEDFA5
:10027000F5DFE09A8DB38993CD38D1F70895E6DFA5
:10028000F894ECDF89918DBBE29AE19ACD38C9F7F9
:10029000E199FECF78948FEF81BF0895000C111C77
:1002A000EE1C8A95D9F70895869FE12C969FE00C65
:1002B000C11DDF1F879FE00CC11DDF1F979FC00D71
:1002C000D11D08951F7E12FD64C0C7E8D0E0B301C0
:1002D000FF9FEE24C73831F4603886E67807C0F116
:1002E0008EE113C08091870068178091880078079D
:1002F00070F7C93811F482E208C08091890068174C
:1003000080918A00780718F380E2882E14FFFECFD0
:100310001F7EC301080E191EEF1E861B970B805B04
:100320009F4F815A904098F68A9481F783E0B6DF18
:100330001992E99258DFC93851F27BDF54DFCB388C
:1003400011F077DF50DF9BDF25C01F7E12FD21C03B
:1003500080E1B816BF1EC0918300D0918400C30114
:100360008C1B9D0B18F4CC27DD270EC01F776091E6
:100370007F0070918000C0E4D0E096DFCF3583E04D
:10038000D80710F0CFE5D3E0C0937B00D0937C007A
:10039000ECC008958091890090918A008093830039
:1003A000909384006091870070918800681B790B9E
:1003B00005D080937F009093800008958FEC97E0A4
:1003C00001969F3F890731F0C0E0D0E06DDFC05259
:1003D000D340B2F3089589D097FD02C072FD6395B2
:1003E000C0916400D0916500009066008093640025
:1003F00090936500609366008C1B9D0B6009C09113
:100400006700D0916800009069000694D795C79561
:100410000694D795C7958C1B9D0B6009C09167000A
:10042000D091680000906900C80FD91F061EC03027
:1004300075E0D70770E0070618F4D694C79406C095
:1004400078E0071618F0072ED0E0C0E0C0936700F0
:10045000D093680000926900C0937400D093750037
:10046000009276008FE593E0D03072E0070640F00E
:1004700080EB91E0D03074E0070610F088ED90E05A
:1004800080937D0090937E008D2F002009F08FEFE8
:10049000809377000694D795C7950694D795C7950E
:1004A0000694D795C7950694D795C795C0936B00CA
:1004B000D0936C0000926D00C0936E00D0936F00DB
:1004C0000092700014FD41CF4CC016FD31C0C091A8
:1004D0006B00D0916C0000906D007DDF1FD0C0914B
:1004E0007400D091750000907600279670E1F89422
:1004F0008CB59DB5C80FD91FDBBDCABD78BF0092B2
:10050000620001606091630078B778940895C091AB
:100510006E00D0916F0000907000E7DF14FD15DFD2
:1005200000FDFCCF0895C0E0D8EB8BE0082E0895C5
:10053000C0917100D09172000090730082B78F71EA
:10054000D81B0F0A30F0C0308AECD80788E00806C4
:1005500008F4E9DFC0937100D09372000092730039
:100560003ACFC0917B00D0917C0080917D0090912A
:100570007E00C817D90708F0EC01CC15DD0508F09E
:10058000E6018FE593E08C1B9D0B91F01D7FCF174B
:10059000DF0781F0609161006C3020F4880F991FB3
:1005A000CC0FDD1F1E7FC09580951E012C01089584
:1005B0001260F8CF1160F7CFF5BD80E488BFE2EE9E
:1005C00088B3817F88BB82B3877C82BB0895F4DFC8
:1005D00078941F7E14FFFECFB8DEC0917B00D091CF
:1005E0007C002096B9F38FE0B816A0F3E5DF80B762
:1005F000886080BF379892988BE18A95F1F7C0E9BF
:10060000D0E06E01F0936100106484E080936A0092
:100610008ADFE1DE88DFC0936700D09368008093B3
:100620006900F0936A00C7D0D4D081E085BD17FD82
:100630000FC048D060D044D06CD044D08CD040D0D3
:1006400098D040D0B8D03CD0C4D00EC0B5DFCECF0B
:1006500037D0D0D037D0B6D033D09CD033D082D0A2
:100660002FD068D02FD04ED0BB20F9F080916900F8
:10067000883010FD00F5CF16DF0641F3E6018091CA
:1006800061008C3038F4839580936100259688ED65
:1006900090E004C01F7B6B968FE593E0C817D907E5
:1006A00010F06C01C4CF6E01C2CFF89485DFC1DDBC
:1006B0009ADD94DDBEDD8BCFF09361001064089568
:1006C0001F7D01C0106201DF80917700909177005B
:1006D00000FFF2CF68B1612765FD08C089178F1F41
:1006E00014FFF6CF8F9331DE8F91F0CF8A9581F78B
:1006F00016FF0DCF089581E087B9C29810FD0895C7
:10070000C39A089580E087B9C39810FD0895C29AEE
:10071000089582E087B9F89482B3959892B322B392
:100720008913949A10FF2061322F11FF3F7EA2E3BC
:100730007894089581E087B9F89482B3949892B33D
:1007400022B38913959A10FF2062322F11FF3F7D4B
:10075000A2E37894089580E087B9C39810FD0895C6
:10076000C19A089582E087B9C19810FD0895C39A8F
:10077000089581E087B9F89482B3949892B322B334
:100780008913939A10FF2860322F11FF377FA2E35D
:100790007894089580E087B9F89482B3939892B3DF
:1007A00022B38913949A10FF2061322F11FF3F7EEC
:1007B000A2E37894089582E087B9C19810FD089566
:1007C000C29A089581E087B9C29810FD0895C19A30
:1007D000089580E087B9F89482B3939892B322B3D6
:1007E0008913959A10FF2062322F11FF3F7DA2E3FB
:1007F0007894089582E087B9F89482B3959892B37B
:1008000022B38913939A10FF2860322F11FF377F8C
:06081000A2E378940895B4
:00000001FF
