:020000020000FC
:1000000016C09DC018951895099499C082C018957E
:100010008AC01895189504C11895189518951895C3
:100020001895C8C01895697A40744042405B002416
:100030000FBEF4E0E0E6FEBFEDBF0292E036F00551
:1000400009F4EEE1E015F005C1F791B69092600079
:1000500094B604BE80E088BB86E087BB80E385BBA6
:100060008CE084BB80E082BB8CE381BB82E083BFF9
:1000700081EC8EBDF5BD88E181BD88E081BD14D1E4
:1000800023D1A9E89E918E9189569A4729F0E6E2FC
:1000900085918D93AF38E1F790FE04C0D6D0DAD0C9
:1000A000DED0E7C292FE03C0DAD0CFD0E2C291FE2A
:1000B00002C0DAD0DEC293FE05C0C7D0C6D0CFD012
:1000C000CED0FBCFF0D0292D38E020FFC3D020FDCB
:1000D000CBD0EAD026953A95C1F7F4CF9FB68A9453
:1000E00009F4EAE79FBE18959FB68A9409F4E1E8FF
:1000F0009FBE18952C93E1E83F12E4E7832C24BCC3
:100100001895EAE75F12EEE6852CA8953C9344BC6F
:1001100018959FB640916200415008F40E7F4093BD
:1001200062009FBE18959FB640916300439540932F
:1001300063004F7011F4BF12BA949FBE189546B574
:1001400057B59EB496FE18C04093780041E84EBD66
:10015000509379004091630040937A0057FD1895C1
:1001600058B752FF18959FB6439540937A009FBEAB
:100170001895BF12BA941CC09FB6B1ECBEBDB09129
:10018000630057FD03C0F8B7F2FDB395F091780016
:100190004F1BF09179005F0BF0917A00BF0B40305C
:1001A000F6E95F07F0E0BF07B0E018F73A01106129
:1001B0009FBE18959FB641B1403051F1403679F05D
:1001C000403881F0403A39F0483A29F1483BE1F0B3
:1001D000483FF1F011F404FF146145EC1EC014FF18
:1001E000006319C005FF17C004FF04C073B06F2E71
:1001F0000F7E11C063B00F7D0EC0F3B94AEF10FD42
:100200004FEF4093850007C04091850043B9F8CF78
:1002100046B7406902C046B7406846BF9FBE1895C2
:100220009FB64CB1453F59F006FF0DC030F45091D8
:1002300086005A9531F4742E18610F7B04C0006457
:1002400051E0509386009FBE189578EC90E5C29AD5
:10025000939A0EC074EB94E6C19A949A09C070EA1E
:1002600098E7AB9A959A04C07CE89CE8C19A939A67
:1002700008B215B2E2B208BA15BAE2BAF2BF82B752
:100280008032E8F362B3677C62BBAB98C298C198D6
:1002900060E1F2BFA89582B78717E8F36A95C9F7BE
:1002A0009A9549F7089500D000D000D09FE060E112
:1002B000F2BF81E088BFA89588B780FFFDCF6A951F
:1002C000B9F79A95A1F708958091600081BFC7E8BA
:1002D000D0E080E890E0A895E199FDCF67B760FD98
:1002E000FACFCF3881F09FBB8EBB0196E09A6DB3F9
:1002F00017F06993F0CF79917DBBF894E29A671378
:10030000E19A7894E8CFD2DF8FEF81BF0895000C97
:10031000111CEE1C8A95D9F70895869FE12C969FB3
:10032000E00CC11DDF1F879FE00CC11DDF1F979FE1
:10033000C00DD11D089513FD77C012FD6BC01F7E47
:10034000C9E8D0E001C0AFDFB301A895FF9FEE245C
:10035000C93831F460348BE57807D0F18FE113C0F0
:1003600080918900681780918A00780768F7CB38F8
:1003700011F482E208C080918B00681780918C0094
:10038000780710F380E2882EA89514FFFDCF1F7E1A
:10039000C301080E191EEF1E861B970B80569F4F38
:1003A0008154914080F68A9479F783E0B0DF199206
:1003B000E99255DFCB3841F279DF51DFCD3811F0CA
:1003C00075DF4DDF81DF39C013FD2EC012FD22C065
:1003D0001F7EC0918300D0918400C3018C1B9D0BB4
:1003E00018F4CC27DD270EC01F7760917F00709135
:1003F0008000CFE3D0E091DFCE3583E0D80710F066
:10040000CEE5D3E080E1B816BF1EC0937B00D09349
:100410007C00FDC0E3011F76CC0FC295209691F3BE
:10042000CE016DE373E0E5CFD72D1F76C0E0D0306D
:1004300049F3CE0160E074E0DCCF80918B009091B5
:100440008C00809383009093840060918900709168
:100450008A00681B790B05D080937F009093800001
:1004600008958FEC97E00196A8959F3F890721F0AA
:10047000C0EEDCEF52DFB9F7089589D097FD02C0D6
:1004800072FD6395C0916400D09165000090660094
:100490008093640090936500609366008C1B9D0BB5
:1004A0006009C0916700D0916800009069000694CF
:1004B000D795C7950694D795C7958C1B9D0B60095A
:1004C000C0916700D091680000906900C80FD91FE3
:1004D000061EC03075E0D70770E0070618F4D69402
:1004E000C79406C078E0071618F0072ED0E0C0E0E9
:1004F000C0936700D093680000926900C0937400B5
:10050000D0937500009276008EE593E0D03072E0D3
:10051000070640F08FEA91E0D03074E0070610F053
:1005200087ED90E080937D0090937E008D2F0020DA
:1005300009F08FEF809377000694D795C7950694BE
:10054000D795C7950694D795C7950694D795C7951F
:10055000C0936B00D0936C0000926D00C0936E004E
:10056000D0936F000092700014FD2ECF4CC016FD8A
:1005700031C0C0916B00D0916C0000906D007DDFA8
:100580001FD0C0917400D09175000090760027961E
:1005900070E1F8948CB59DB5C80FD91FDBBDCABDFD
:1005A00078BF0092620001606091630078B7789430
:1005B0000895C0916E00D0916F0000907000E7DF49
:1005C00014FD02DF00FDFCCF0895C0E0D8EB8BE006
:1005D000082E0895C0917100D091720000907300B0
:1005E00082B78F71D81B0F0A30F0C0308AECD80761
:1005F00088E0080608F4E9DFC0937100D093720028
:10060000009273003ACFC0917B00D0917C00809122
:100610007D0090917E00C817D90708F0EC01CC1539
:10062000DD0508F0E6018EE593E08C1B9D0B91F053
:100630001D7FCF17DF0781F0609161006C3020F4DF
:10064000880F991FCC0FDD1F1E7FC09580951E015E
:100650002C0108951260F8CF1160F7CFF5BD80E44A
:1006600088BFE1E8AB98C298C19882B3877C82BB0F
:100670000895AA9AE2DE84E588BF89BF80E080BD44
:1006800089E189B980E18AB986E880BD8CB18CB1F5
:100690008CB15F9A579A006382E582B985EC86BF78
:1006A00081EC8EBD89B7806289BF7894BB24137EAC
:1006B000A89514FFFDCF3FDEC0917B00D0917C0058
:1006C0002096A1F78AE0B81698F312FFF6BF13FF41
:1006D000FAB9812F8C7019F089B78F7D89BFC4DD7D
:1006E000C3DDC2DDBBDFA89514FFFDCF6DDEC09179
:1006F0007B00D0917C002096B1F38FE0B81698F380
:10070000ADDF80B7886080BF92988BE18A95F1F762
:10071000CFE8D0E06E01F0936100106484E0809334
:100720006A0053DFAADE51DFC0936700D0936800F0
:1007300080936900F0936A00CAD0D7D081E085BD6C
:1007400017FD0FC047D05FD043D06DD043D08DD0C0
:100750003FD099D03FD0BBD03BD0C7D00EC07EDFBA
:10076000CFCF36D0D4D036D0B8D032D09ED032D041
:1007700084D02ED068D02ED04ED0BB20F9F08091FE
:100780006900883010FDF8F4CF16DF0641F3E6016A
:10079000809161008C3038F48395809361002596B8
:1007A00087ED90E004C01F7B6B968EE593E0C81741
:1007B000D90710F06C01C4CF6E01C2CF4FDF76DDD8
:1007C0004EDD48DD73DD8ECFF09361001064089537
:1007D0001F7D01C01062CBDE809177009091770081
:1007E00000FFF2CF68B1612765FD08C089178F1F30
:1007F00014FFF6CF8F93E8DD8F91F0CF8A9581F7C4
:1008000016FFD7CE089581E087B93798C29810FDBA
:100810000895AB9A089580E087B93798AB9810FD9A
:100820000895C29A0895379AF89482B3959892B32E
:1008300022B38913949A10FF2061322F11FF3F7E5B
:10084000A2E37894089581E087B93798F89482B349
:10085000949892B322B38913959A10FF2062322F95
:1008600011FF3F7DA2E37894089580E087B937981F
:10087000AB9810FD0895C19A0895379AC19810FD5C
:100880000895AB9A089581E087B93798F89482B3B8
:10089000949892B322B38913939A10FF2860322F51
:1008A00011FF377FA2E37894089580E087B93798E5
:1008B000F89482B3939892B322B38913949A10FF59
:1008C0002061322F11FF3F7EA2E378940895379A7A
:1008D000C19810FD0895C29A089581E087B93798AC
:1008E000C29810FD0895C19A089580E087B937989D
:1008F000F89482B3939892B322B38913959A10FF18
:100900002062322F11FF3F7DA2E378940895379A39
:10091000F89482B3959892B322B38913939A10FFF7
:0E0920002860322F11FF377FA2E378940895EC
:00000001FF
