:020000020000FC
:100000000DC0000000000000099466C0A0C0A9C097
:10001000B2C00000000000000000000000240FBE7D
:10002000F4E0EFE5FEBFEDBF0292E036F00509F423
:10003000EEE1E015F005C1F700E008BB0EE007BBFC
:1000400000E005BB00E004BB00E002BB0CEB01BB21
:1000500002E003BF01EC0EBD05BCEAED0EE5009326
:100060007D0003E000937E0004E200937F0004E043
:1000700000938000E8D00FEF01BFD9D0E4B604BEF2
:10008000E0FE06C0A6D0D3D0A9D0D1D0ACD007C056
:10009000E2FE02C0A8D09DD0E1FE01C0A9D0D3D01D
:1000A00097980CE908BF09BF789401EC0EBD09B719
:1000B000006209BFBB2484FFFECFD0D0C09179007D
:1000C000D0917A002096B1F70AE0B016A0F3F89428
:1000D0008FD08ED08DD0F6C146B557B51EB416FE62
:1000E00018C04093760041E84EBD50937700409190
:1000F00075004093780057FD189558B752FF189532
:100100001FB64395409378001FBE1895B010BA945F
:100110001CC01FB6B1ECBEBDB091750057FD03C049
:10012000F8B7F2FDB395F09176004F1BF091770090
:100130005F0BF0917800BF0B4038F9E85F07F0E003
:10014000BF07B0E018F73A0180611FBE18951FB6CF
:1001500040917300415008F47E7F409373001FBEAE
:1001600018951FB640917400415008F47D7F40936C
:1001700074001FBE18951FB64091750043954093BB
:1001800075004F7011F4B010BA941FBE18951FB6C9
:100190008A9409F4E3ED1FBE18951FB68A9409F4FA
:1001A000EAED1FBE18956C93EAED3010EDEC832C50
:1001B00024BC1895501005C0E3EDE8B09C9344BCF6
:1001C0001895E7EC9C939C939C93852CE8B044BCD9
:1001D000189538EC10E5C29A939A0FC034EB14E6E8
:1001E000C19A949A0AC030EA18E7C39A959A05C052
:1001F0003CE81CE8C19A939A00C048B355B3D2B307
:1002000048BB55BBD2BB02BE02B70032E8F3C2B353
:10021000C77CC2BBC8B3C17FC8BB20E102BE02B766
:100220000317E8F32A95D1F71A9551F708951FE0BF
:1002300020E102BE08BE08B700FFFDCF2A95C9F72E
:100240001A95B1F7089510E820E102BE02B7083C04
:10025000E8F32A95D1F71A95B9F708958F7E82FDB4
:1002600023C000E1B016B01CE301C295D295CF7057
:10027000CD27DF70CD278F7700917F001091800010
:10028000C01BD10B18F4CC27DD2709C0EF960091D5
:100290007D0010917E00C017D10708F0E801C093DF
:1002A0007900D0937A00D4C00895209175008AD047
:1002B00017FF20917500C0916000D091610090906F
:1002C00062000093600010936100209362000C1B99
:1002D0001D0B2909C0916300D091640090906500C6
:1002E0009694D795C7959694D795C7950C1B1D0BDB
:1002F0002909C0916300D091640090906500C00FFF
:10030000D11F921EC03035E0D30730E0930618F4B9
:10031000D694C79405C0D03031E0930608F48F7BA3
:1003200038E0931618F0932ED0E0C0E0C09363003D
:10033000D093640090926500C0937000D0937100D8
:10034000909272000EE513E0D03032E0930640F058
:100350000FEA11E0D03034E0930610F007ED10E022
:1003600000937B0010937C009694D795C795969444
:10037000D795C7959694D795C7959694D795C795D1
:10038000C0936700D093680090926900C0936A00A0
:10039000D0936B0090926C0084FD60CF55C086FDB9
:1003A0003AC0C0916700D0916800909069007DDFED
:1003B00084FD54DF70FDFCCFC0917000D0917100BE
:1003C00090907200279630E1F8940CB51DB5C00FDF
:1003D000D11FDBBDCABD38BF9092730071607894A5
:1003E0000895C0916A00D0916B0090906C002796A0
:1003F00028E0F8940CB51DB5C00FD11FD9BDC8BDFC
:1004000028BF90927400726078940895C0E0D8EB91
:100410000BE0902E0895C0916D00D0916E009090E9
:100420006F0002B70F71D01B900830F0C0300AEC9B
:10043000D00708E0900608F4E9DFC0936D00D09380
:100440006E0090926F0031CFC0917900D0917A0008
:1004500000917B0010917C00C017D10708F0E801E3
:10046000CC15DD0508F0E6010EE513E00C1B1D0BB5
:1004700091F08D7FC015D00581F0209181002C3046
:1004800020F4000F111FCC0FDD1F8E7FC09500954B
:100490001E01280108958260F8CF8160F7CF05BC66
:1004A00008B3017F08BB02B3077C02BB089500E1DB
:1004B0000A95F1F7089500E8E02A84FDCFDEE7FC15
:1004C000FCCF0895ECDF78948F7E84FFFECFC6DEEC
:1004D000C0917900D0917A002096B9F30FE0B01660
:1004E000A0F3DDDF00B7086000BF379892980BE1FA
:1004F0000A95F1F7CBE6D0E06E01009281008064AE
:1005000004E00093660082DFD0DE80DFC0936300EA
:10051000D09364000093650000926600F0D0FDD097
:1005200001E005BD87FD1CC06CD086FF0BC0E5FE59
:1005300009C08F93816083D08F918FD0B0D0BBDF03
:10054000BADF05C07CD059D088D05BD0A8D055D0B8
:10055000B4D057D0D4D051D0E0D019C0A0DFC1CF93
:100560004CD086FF09C0E5FC07C08F938160E6D0C0
:100570008F91CCD0B3D005C0E1D043D0C7D03DD00F
:10058000ADD03FD093D039D079D03BD05FD0BB2015
:10059000F9F000916500083080FD00F5C014D0042A
:1005A000E9F2E601009181000C3038F403950093E4
:1005B0008100279607ED10E004C08F7B6B960EE557
:1005C00013E0C017D10710F06801ACCF6E01AACFBD
:1005D000F89465DF2CDE07DE01DE29DE73CF6BDFEA
:1005E0006ADF3E2D70FF05C084FD38DE3E15D1F375
:1005F00008950092810080640895D1DE3E2D3F7DF4
:1006000003C0CDDE3E2D306286FDE9CF70FFF1CF15
:1006100084FD24DEE8B0E316C9F349DFE8B0E31651
:10062000A9F345DFE8B0E31689F3DBDE84FD16DECF
:10063000E31619F071FDFACF08958064E7CF01E069
:1006400007B9C29880FD0895C39A089500E007B9DC
:10065000C39880FD0895C29A089502E007B9F894FE
:1006600002B3959812B362B30113949A80FF60614C
:10067000962F81FF9F7EA2E37894089501E007B949
:10068000F89402B3949812B362B30113959A80FF61
:100690006062962F81FF9F7DA2E37894089500E029
:1006A00007B9C39880FD0895C19A089502E007B97B
:1006B000C19880FD0895C39A089501E007B9F894A0
:1006C00002B3949812B362B30113939A80FF6860E7
:1006D000962F81FF977FA2E37894089500E007B9F1
:1006E000F89402B3939812B362B30113949A80FF03
:1006F0006061962F81FF9F7EA2E37894089502E0C7
:1007000007B9C19880FD0895C29A089501E007B91C
:10071000C29880FD0895C19A089500E007B9F89441
:1007200002B3939812B362B30113959A80FF60628B
:10073000962F81FF9F7DA2E37894089502E007B988
:10074000F89402B3959812B362B30113939A80FFA1
:0E0750006860962F81FF977FA2E3789408954A
:00000001FF
