:020000020000FC
:100000000DC0000000000000099466C0A0C0A9C097
:10001000B2C00000000000000000000000240FBE7D
:10002000F4E0EFE5FEBFEDBF0292E036F00509F423
:10003000EEE1E015F005C1F700E008BB0EE007BBFC
:1000400000E005BB00E004BB00E002BB0CEB01BB21
:1000500002E003BF01EC0EBD05BCEAED0EE5009326
:100060007D0003E000937E0004E200937F0004E043
:1000700000938000E9D00FEF01BFDAD0E4B604BEF0
:10008000E0FE06C0A7D0D4D0AAD0D2D0ADD007C051
:10009000E2FE02C0A9D09ED0E1FE01C0AAD0D4D019
:1000A00097980CE908BF09BF789401EC0EBD09B719
:1000B000006209BFBB2484FFFECFD1D0C09179007C
:1000C000D0917A002096B1F70AE0B016A0F3F89428
:1000D00090D08FD08ED0EDC146B557B51EB416FE68
:1000E00018C04093760041E84EBD50937700409190
:1000F00075004093780057FD189558B752FF189532
:100100001FB64395409378001FBE1895B010BA945F
:100110001CC01FB6B1ECBEBDB091750057FD03C049
:10012000F8B7F2FDB395F09176004F1BF091770090
:100130005F0BF0917800BF0B4038F9E85F07F0E003
:10014000BF07B0E018F73A0180611FBE18951FB6CF
:1001500040917300415008F47E7F409373001FBEAE
:1001600018951FB640917400415008F47D7F40936C
:1001700074001FBE18951FB64091750043954093BB
:1001800075004F7011F4B010BA941FBE18951FB6C9
:100190008A9409F4E3ED1FBE18951FB68A9409F4FA
:1001A000EAED1FBE18956C93EAED3010EDEC832C50
:1001B00024BC1895501005C0E3EDE8B09C9344BCF6
:1001C0001895E7EC9C93852C03D0E8B044BC1895B7
:1001D000A895089538EC10E5C29A939A0FC034EBB5
:1001E00014E6C19A949A0AC030EA18E7C39A959A1D
:1001F00005C03CE81CE8C19A939A00C048B355B3C7
:10020000D2B348BB55BBD2BB02BE02B70032E8F343
:10021000C2B3C77CC2BBC8B3C17FC8BB20E102BEAA
:1002200002B70317E8F32A95D1F71A9551F7089505
:100230001FE020E102BE08BE08B700FFFDCF2A95EF
:10024000C9F71A95B1F7089510E820E102BE02B788
:10025000083CE8F32A95D1F71A95B9F708958F7EEF
:1002600082FD23C000E1B016B01CE301C295D29517
:10027000CF70CD27DF70CD278F7700917F00109151
:100280008000C01BD10B18F4CC27DD2709C0EF96E6
:1002900000917D0010917E00C017D10708F0E801A1
:1002A000C0937900D0937A00CAC008952091750058
:1002B00082D017FF20917500C0916000D09161003D
:1002C00090906200009360001093610020936200A0
:1002D0000C1B1D0B2909C0916300D0916400909004
:1002E00065009694D795C7959694D795C7950C1B9E
:1002F0001D0B2909C0916300D091640090906500A6
:10030000C00FD11F921EC03035E0D30730E09306F6
:1003100010F4D694C79438E0931618F0932ED0E0DA
:10032000C0E0C0936300D093640090926500C093D6
:100330007000D0937100909272000EE513E0D030FF
:1003400032E0930640F00FEA11E0D03034E093063B
:1003500010F007ED10E000937B0010937C00969462
:10036000D795C7959694D795C7959694D795C795E1
:100370009694D795C795C0936700D09368009092E4
:100380006900C0936A00D0936B0090926C0084FD6A
:1003900066CF51C0C0916700D0916800909069000D
:1003A00085DF84FD5CDF70FDFCCFC0917000D091D3
:1003B000710090907200279630E1F8940CB51DB54D
:1003C000C00FD11FDBBDCABD38BF909273007160F2
:1003D00078940895C0916A00D0916B0090906C0061
:1003E000279638E0F8940CB51DB5C00FD11FD9BDC4
:1003F000C8BD38BF90927400726078940895C0911F
:100400006D00D0916E0090906F0002B70F71D01BFD
:10041000900830F0C0300AECD00708E0900620F4D5
:10042000C0E0D8EB0BE0902EC0936D00D0936E002F
:1004300090926F003BCFC0917900D0917A000091EB
:100440007B0010917C00C017D10708F0E801CC15A3
:10045000DD0508F0E6010EE513E00C1B1D0B91F025
:100460008D7FC015D00581F0209181002C3020F4C3
:10047000000F111FCC0FDD1F8E7FC09500951E0150
:10048000280108958260F8CF8160692FF6CF05BCFE
:1004900008B3017F08BB02B3077C02BB08950CE0E0
:1004A0000A95F1F708950FEFE02EE01670FDE9F3DD
:1004B0000895EDDF78948F7E84FFFECFD0DEC0916B
:1004C0007900D0917A002096B9F30FE0B016A0F32E
:1004D00002B3077C02BB00B7086000BF37980BE18E
:1004E0000A95F1F7CBE6D0E06E0100928100929878
:1004F00086DF40D14DD101E005BD87FD18C04BD04E
:1005000028F000928100D6D0E3D006C0D3D077DFA8
:1005100042D0DED074DF3FD0FDD071DF3CD008D1B7
:100520006EDF39D027D16BDF36D032D117C033D050
:1005300028F4009281003DD124D106C03AD15FDF7A
:100540002AD01FD15CDF27D004D159DF24D0E9D0D5
:1005500056DF21D0CED053DF1ED0B3D080FDA9CF3F
:10056000BB2009F478C0009181000C3028F5039578
:10057000009381000091640000300091650011E05B
:100580000107D0F0E601C73D00E0D00710F4279640
:100590006E0135DFB2CF87DF84FD61DE84DF3E2D63
:1005A00084FD5DDE3E1570FDD9F38894E5FE089468
:1005B00070FF009281000895EDDE87FD1BC067D0BB
:1005C000B8F078D0E7DE50D098F082D0E3DE5FD08C
:1005D00078F0A0D0DFDE48D058F0AAD0DBDE57D0CC
:1005E00038F0C8D0D7DE40D018F0D2D0D3DE1AC051
:1005F0004EDF78CF39D0E0F3DCD0CCDE48D0C0F38A
:10060000C0D0C8DE31D0A0F3A4D0C4DE40D080F387
:1006100088D0C0DE29D060F36CD0BCDE38D040F387
:1006200050D0B8DEBB20B9F0C014D00409F300915B
:1006300065000830E8F6009181000C3020F4039545
:1006400000938100BACFE601CE3503E0D00710F465
:10065000E6966E01B2CFF8941ADFEADDC5DDBFDDA4
:10066000E7DD27CF0894089570FFFCCF84FDF7DD08
:10067000459BFACF14DFE8B0E5FEF6CFABDE84FD94
:10068000EEDDE5FEF1CF71FDFACF8894089570FF9D
:10069000E9CF84FDE4DD4599FACF01DFE8B0E5FC60
:1006A000F6CF98DE84FDDBDDE5FCF1CF71FDFACFFE
:1006B0008894089501E007B9C29880FD0895C39A0F
:1006C000089500E007B9C39880FD0895C29A08957F
:1006D00002E007B9F89402B3959812B362B301131C
:1006E000949A80FF6061962F81FF9F7EA2E37894A9
:1006F000089501E007B9F89402B3949812B362B375
:100700000113959A80FF6062962F81FF9F7DA2E37F
:100710007894089500E007B9C39880FD0895C19AC0
:10072000089502E007B9C19880FD0895C39A08951D
:1007300001E007B9F89402B3949812B362B30113BD
:10074000939A80FF6860962F81FF977FA2E3789449
:10075000089500E007B9F89402B3939812B362B316
:100760000113949A80FF6061962F81FF9F7EA2E320
:100770007894089502E007B9C19880FD0895C29A5F
:10078000089501E007B9C29880FD0895C19A0895BF
:1007900000E007B9F89402B3939812B362B301135F
:1007A000959A80FF6062962F81FF9F7DA2E37894E7
:1007B000089502E007B9F89402B3959812B362B3B2
:1007C0000113939A80FF6860962F81FF977FA2E3C1
:0407D000789408957C
:00000001FF
