:020000020000FC
:1000000012C0BEC0189518950994BAC0A3C018951F
:10001000ABC01895189518951895189518951895BA
:100020001895E9C0189500240FBEF4E0E0E6FEBF85
:10003000EDBF0292E036F00509F4EEE1E015F005BF
:10004000C1F791B69092600094B604BE80E088BB80
:100050008EE087BB80E385BB80E084BB80E082BB11
:100060008CEB81BB82E083BF81EC8EBDF5BD27D1D7
:1000700046D1809186009091870089569A47C1F0B9
:1000800080E48093880084E78093890080E48093F3
:100090008A0082E480938B0080E480938C008BE55F
:1000A00080938D0089E6809386008AE7809387009D
:1000B0003AD190FE04C0D5D0D9D0DDD007C092FE91
:1000C00002C0D9D0CED091FE01C0DAD09798B8D175
:1000D00084E588BF89BF7894006382E582B985ECA6
:1000E00086BF81EC8EBD89B7806289BFBB241B7E31
:1000F00014FFFECF2FD1C0917B00D0917C002096C1
:10010000A9F78AE0B816A0F3F89412FFF6BF12FF21
:1001100003C089B78F7D89BFB3D0B2D0B1D0ABC295
:100120009FB68A9409F4ECE99FBE18959FB68A940D
:1001300009F4E3EA9FBE18952C93E3EA3F12E6E93F
:10014000832C24BC1895ECE95F12E0E9852C3C93E4
:1001500044BC18959FB640916200415008F40E7F50
:10016000409362009FBE18959FB6409163004395EF
:10017000409363004F7011F4BF12BA949FBE18955C
:1001800046B557B59EB496FE18C04093780041E836
:100190004EBD509379004091630040937A0057FD23
:1001A000189558B752FF18959FB6439540937A001B
:1001B0009FBE1895BF12BA941CC09FB6B1ECBEBDCD
:1001C000B091630057FD03C0F8B7F2FDB395F0910D
:1001D00078004F1BF09179005F0BF0917A00BF0B14
:1001E0004030F6E95F07F0E0BF07B0E018F73A01EA
:1001F00010619FBE18959FB641B1403051F1403615
:1002000079F0403881F0403A39F0483A29F1483BDA
:10021000E1F0483FF1F011F404FF146145EC1EC019
:1002200014FF006319C005FF17C004FF04C073B0BA
:100230006F2E0F7E11C063B00F7D0EC0F3B94AEF71
:1002400010FD4FEF4093850007C04091850043B9F2
:10025000F8CF46B7406902C046B7406846BF9FBE68
:10026000189578EC90E5C29A939A0EC074EB94E6D8
:10027000C19A949A09C070EA98E7C39A959A04C003
:100280007CE89CE8C19A939A08B215B2E2B208BA27
:1002900015BAE2BAF2BF82B78032E8F362B3677C84
:1002A00062BB68B3617F68BB60E1F2BF82B787174A
:1002B000E8F36A95D1F79A9551F7089500D000D0E8
:1002C00000D09FE060E1F2BF81E088BF88B780FF87
:1002D000FDCF6A95C1F79A95A9F7089580916000BE
:1002E00081BFC6E8D0E080E890E00895E199FECFB4
:1002F00067B760FDFBCF9FBB8EBB01960895EEDF15
:10030000F5DFE09A8DB38993CE38D1F70895E6DF13
:10031000F894ECDF89918DBBE29AE19ACE38C9F767
:10032000E199FECF78948FEF81BF0895000C111CE6
:10033000EE1C8A95D9F70895869FE12C969FE00CD4
:10034000C11DDF1F879FE00CC11DDF1F979FC00DE0
:10035000D11D089512FD67C01F7EC8E8D0E001C01E
:10036000ADDFB301FF9FEE24C83831F460348BE574
:100370007807B8F18FE113C08091880068178091E9
:100380008900780770F7CA3811F482E208C08091BA
:100390008A00681780918B00780718F380E2882E16
:1003A00014FFFECF1F7EC301080E191EEF1E861B11
:1003B000970B80569F4F8154914090F68A9481F715
:1003C00083E0B4DF1992E99256DFCA3851F279DF3F
:1003D00052DFCC3811F075DF4EDF99DF31C012FDEE
:1003E00022C01F7E80E1B816BF1EC0918300D0914D
:1003F0008400C3018C1B9D0B18F4CC27DD270EC095
:100400001F7760917F0070918000C0E4D0E094DF9E
:10041000CF3583E0D80710F0CFE5D3E0C0937B0061
:10042000D0937C00F6C080E1B816BF1EE3011F76B2
:10043000CC0FC295209691F3CE016DE373E0E5CF2A
:1004400080918A0090918B00809383009093840028
:100450006091880070918900681B790B05D08093AA
:100460007F009093800008958FEC97E001969F3F66
:10047000890721F0C0EEDCEF5FDFC1F7089589D076
:1004800097FD02C072FD6395C0916400D091650034
:10049000009066008093640090936500609366000E
:1004A0008C1B9D0B6009C0916700D0916800009083
:1004B00069000694D795C7950694D795C7958C1B68
:1004C0009D0B6009C0916700D091680000906900A1
:1004D000C80FD91F061EC03075E0D70770E00706A9
:1004E00018F4D694C79406C078E0071618F0072EC3
:1004F000D0E0C0E0C0936700D0936800009269002C
:10050000C0937400D0937500009276008FE593E05D
:10051000D03072E0070640F080EB91E0D03074E01C
:10052000070610F088ED90E080937D0090937E00A8
:100530008D2F002009F08FEF809377000694D795D8
:10054000C7950694D795C7950694D795C7950694F1
:10055000D795C795C0936B00D0936C0000926D0047
:10056000C0936E00D0936F000092700014FD37CFDF
:100570004CC016FD31C0C0916B00D0916C00009052
:100580006D007DDF1FD0C0917400D0917500009088
:100590007600279670E1F8948CB59DB5C80FD91FE9
:1005A000DBBDCABD78BF009262000160609163004C
:1005B00078B778940895C0916E00D0916F00009044
:1005C0007000E7DF14FD0BDF00FDFCCF0895C0E0F5
:1005D000D8EB8BE0082E0895C0917100D091720085
:1005E0000090730082B78F71D81B0F0A30F0C030B3
:1005F0008AECD80788E0080608F4E9DFC0937100A8
:10060000D0937200009273003ACFC0917B00D091DA
:100610007C0080917D0090917E00C817D90708F07A
:10062000EC01CC15DD0508F0E6018FE593E08C1BAD
:100630009D0B91F01D7FCF17DF0781F06091610066
:100640006C3020F4880F991FCC0FDD1F1E7FC095E2
:1006500080951E012C0108951260F8CF1160F7CF2C
:10066000F5BD80E488BFE3EA88B3817F88BB82B3AD
:10067000877C82BB0895F4DF78941F7E14FFFECF41
:10068000AEDEC0917B00D0917C002096B9F38FE064
:10069000B816A0F3E5DF80B7886080BF37989298DE
:1006A0008BE18A95F1F7C0E9D0E06E01F09361002B
:1006B000106484E080936A008ADFE1DE88DFC09303
:1006C0006700D093680080936900F0936A00C7D0F8
:1006D000D4D081E085BD17FD0FC048D060D044D094
:1006E0006CD044D08CD040D098D040D0B8D03CD042
:1006F000C4D00EC0B5DFCECF37D0D0D037D0B6D033
:1007000033D09CD033D082D02FD068D02FD04ED0D1
:10071000BB20F9F080916900883010FD00F5CF16FC
:10072000DF0641F3E601809161008C3038F4839557
:1007300080936100259688ED90E004C01F7B6B9646
:100740008FE593E0C817D90710F06C01C4CF6E0194
:10075000C2CFF89485DFB5DD8EDD88DDB2DD8BCFCD
:10076000F0936100106408951F7D01C0106201DFE5
:10077000809177009091770000FFF2CF68B16127F8
:1007800065FD08C089178F1F14FFF6CF8F9327DEF2
:100790008F91F0CF8A9581F716FF0DCF089581E0F4
:1007A00087B9C29810FD0895C39A089580E087B96B
:1007B000C39810FD0895C29A089582E087B9F8940D
:1007C00082B3959892B322B38913949A10FF206153
:1007D000322F11FF3F7EA2E37894089581E087B91C
:1007E000F89482B3949892B322B38913959A10FF28
:1007F0002062322F11FF3F7DA2E37894089580E0BC
:1008000087B9C39810FD0895C19A089582E087B909
:10081000C19810FD0895C39A089581E087B9F894AE
:1008200082B3949892B322B38913939A10FF2860ED
:10083000322F11FF377FA2E37894089580E087B9C3
:10084000F89482B3939892B322B38913949A10FFC9
:100850002061322F11FF3F7EA2E37894089582E059
:1008600087B9C19810FD0895C29A089581E087B9AB
:10087000C29810FD0895C19A089580E087B9F89450
:1008800082B3939892B322B38913959A10FF206292
:10089000322F11FF3F7DA2E37894089582E087B95B
:1008A000F89482B3959892B322B38913939A10FF68
:0E08B0002860322F11FF377FA2E3789408955D
:00000001FF
