:020000020000FC
:100000000DC068C000000000099400009DC0A6C09B
:10001000AFC00000000000000000000000240FBE80
:10002000F4E0EFE5FEBFEDBF0292E036F00509F423
:10003000EEE1E015F005C1F700E008BB01E007BB09
:1000400000E005BB08E304BB00E002BB00E301BB2A
:1000500002E003BF01E00EBD05BCE7ED0EE5009335
:100060007E0003E000937F0004E20093800004E040
:1000700000938100DDD00FEF01BFCED014B604BED7
:1000800010FE06C09BD0C8D09ED0C6D0A1D007C05D
:1000900012FE02C09DD092D011FE01C09ED0C8D0E9
:1000A0000CE908BF09BF789403E005BF00E40BBF6B
:1000B000BB2484FFFECFC7D0C0917A00D0917B00D3
:1000C0002096B1F70AE0B016A0F3F89486D085D058
:1000D00084D0E8C14CB55DB5829B18C040937700D1
:1000E00042E045BF509378004091760040937900FC
:1000F00057FD189558B752FF18951FB64395409372
:1001000079001FBE1895B010BA941CC01FB6B3E09A
:10011000B5BFB091760057FD03C0F8B7F2FDB395B7
:10012000F09177004F1BF09178005F0BF091790010
:10013000BF0B4038F9E85F07F0E0BF07B0E018F701
:100140003A0180611FBE18951FB64091740041505E
:1001500008F47E7F409374001FBE18951FB640912F
:100160007500415008F47D7F409375001FBE1895BF
:100170001FB6409176004395409376004F7011F47E
:10018000B010BA941FBE18951FB68A9409F4E0ED1A
:100190001FBE18951FB68A9409F4E7ED1FBE189587
:1001A0006C93E7ED3010EAEC832C24BC1895E0ED5D
:1001B0005010E4EC852C9C9344BC189538EC10E569
:1001C000AD9A959A0FC034EB14E6AB9AAC9A0AC07C
:1001D00030EA18E7949AC09A05C03CE81CE8AB9A4C
:1001E000959A00C048B355B3D2B348BB55BBD2BBF8
:1001F00002BE02B70032E8F39598AC98C098949884
:10020000AD98AB9820E102BE02B70317E8F32A9538
:10021000D1F71A9551F708951FE020E102BE08BEFC
:1002200008B700FFFDCF2A95C9F71A95B1F70895D1
:1002300010E820E102BE02B7083CE8F32A95D1F7A6
:100240001A95B9F708958F7E82FD23C000E1B0169C
:10025000B01CE301C295D295CF70CD27DF70CD27BA
:100260008F770091800010918100C01BD10B18F492
:10027000CC27DD2709C0EF9600917E0010917F000A
:10028000C017D10708F0E801C0937A00D0937B0033
:10029000DAC008952091760090D017FF2091760063
:1002A000C0916000D0916100909062000093600066
:1002B00010936100209362000C1B1D0B2909C09153
:1002C0006300D0916400909065009694D795C7958F
:1002D0009694D795C7950C1B1D0B2909C0916300F7
:1002E000D091640090906500C00FD11F921EC03065
:1002F00035E0D30730E0930618F4D694C79405C0D0
:10030000D03031E0930608F48F7B38E0931618F074
:10031000932ED0E0C0E0C0936300D093640090922D
:100320006500C0937000D0937100909272000EE54A
:1003300013E0D03032E0930640F00FEA11E0D03005
:1003400034E0930610F007ED10E000937C0010936A
:100350007D000D2F992009F00FEF00937300969404
:10036000D795C7959694D795C7959694D795C795E1
:100370009694D795C795C0936700D09368009092E4
:100380006900C0936A00D0936B0090926C0084FD6A
:100390005ACF55C086FD3AC0C0916700D091680021
:1003A0009090690077DF84FD4EDF70FDFCCFC09137
:1003B0007000D091710090907200279630E1F8940F
:1003C0000CB51DB5C00FD11FDBBDCABD38BF9092A3
:1003D0007400716078940895C0916A00D0916B00A8
:1003E00090906C00279628E0F8940CB51DB5C00FCE
:1003F000D11FD9BDC8BD28BF909275007260789496
:100400000895C0E0D8EB0BE0902E0895C0916D00E8
:10041000D0916E0090906F0002B70F71D01B9008C2
:1004200030F0C0300AECD00708E0900608F4E9DFAD
:10043000C0936D00D0936E0090926F002BCFC0914F
:100440007A00D0917B0000917C0010917D00C01754
:10045000D10708F0E801CC15DD0508F0E6010EE54E
:1004600013E00C1B1D0B91F08D7FC015D00581F0A2
:10047000209182002C3020F4000F111FCC0FDD1FC3
:100480008E7FC09500951E01280108958260F8CFE7
:100490008160F7CF05BC9498AD98AB989598AC98CF
:1004A000C0980895F7DF78948F7E84FFFECFCBDE6F
:1004B000C0917A00D0917B002096B9F30FE0B0167E
:1004C000A0F3E8DF00B7086000BF37980BE10A959A
:1004D000F1F7CFE8D0E06E0100928200806404E082
:1004E000009366008EDFD6DE8CDFC0936300D0936E
:1004F00064000093650000926600D2D0DFD001E076
:1005000005BD87FD0FC04AD067D044D073D046D018
:1005100093D040D0A3D042D0C3D03CD0CFD00EC0D7
:10052000B9DFCFCF37D0DBD039D0C1D033D0A7D0CF
:1005300035D08BD02FD06FD031D055D0BB20F9F033
:1005400000916500083080FD00F5C014D00441F32F
:10055000E601009182000C3038F40395009382008C
:10056000259607ED10E004C08F7B6B960EE513E037
:10057000C017D10710F06801C4CF6E01C2CFF89444
:1005800089DF4ADE25DE1FDE47DE8CCF0092820047
:1005900080640895FFDE38B13F7D03C0FBDE38B1D3
:1005A00030627D7F009173001091730070FFEECF79
:1005B00028B1231741F40117001D84FFF7CF0F93D3
:1005C00042DE0F91F1CF0A9589F786FF05DF84FDA2
:1005D0003ADE71FDFCCF089507E007B9AD9880FDC4
:1005E0000895949A089506E007B9949880FD0895B7
:1005F000AD9A089500E007B9F89408B3C09818B30D
:1006000065B30113AC9A80FF6061962F81FF9F7ED6
:10061000A5E37894089507E007B9F89405B3AC987A
:1006200015B368B30113C09A80FF6160962F81FFF4
:100630009E7FA8E37894089506E007B9949880FD1A
:10064000089568609860AB9A089500E007B9677FE5
:10065000977FAB9880FD0895949A089507E007B9B5
:10066000F89405B3AC9815B362B30113959A80FF63
:100670006062962F81FF9F7DA2E37894089506E043
:1006800007B9F89402B3959812B365B30113AC9A05
:1006900080FF6061962F81FF9F7EA5E37894089587
:1006A00000E007B9AB9880FD0895AD9A089507E082
:1006B00007B9AD9880FD0895AB9A089506E007B993
:1006C000F89402B3959812B368B30113C09A80FFEF
:1006D0006160962F81FF9E7FA8E37894089500E0E3
:1006E00007B9F89408B3C09818B362B30113959A88
:1006F00080FF6062962F81FF9F7DA2E3789408952A
:00000001FF
