:020000020000FC
:1000000016C09DC018951895099499C082C018957E
:100010008AC018951895CDC01895189518951895FB
:100020001895C7C01895697A40744042405B002417
:100030000FBEF4E0E0E6FEBFEDBF0292E036F00551
:1000400009F4EEE1E015F005C1F791B69092600079
:1000500094B604BE80E088BB81E087BB80E085BBAE
:1000600088E384BB80E082BB80E381BB82E083BF06
:1000700081E08EBDF5BD88E181BD88E081BDC8D03D
:10008000D7D0A9E89E918E9189569A4729F0E6E249
:1000900085918D93AF38E1F790FE04C08AD08ED061
:1000A00092D080C292FE03C08ED083D07BC291FEDC
:1000B00002C08ED077C293FE05C07BD07AD083D0A9
:1000C00082D0FBCFA4D0292D38E020FF77D020FDAF
:1000D0007FD09ED026953A95C1F7F4CF9FB68A94EB
:1000E00009F4EAE79FBE18959FB68A9409F4E1E8FF
:1000F0009FBE18952C93E1E83F12E4E7832C24BCC3
:100100001895EAE75F12EEE6852CA8953C9344BC6F
:1001100018959FB640916200415008F40E7F4093BD
:1001200062009FBE18959FB640916300439540932F
:1001300063004F7011F4BF12BA949FBE18954CB56E
:100140005DB5829B18C04093780042E045BF509354
:1001500079004091630040937A0057FD189558B795
:1001600052FF18959FB6439540937A009FBE18950D
:10017000BF12BA941CC09FB6B3E0B5BFB091630084
:1001800057FD03C0F8B7F2FDB395F09178004F1B0F
:10019000F09179005F0BF0917A00BF0B4030F6E9E7
:1001A0005F07F0E0BF07B0E018F73A0110619FBEAB
:1001B000189578EC90E5AD9A959A0EC074EB94E69C
:1001C000AB9AAC9A09C070EA98E7949AC09A04C0B6
:1001D0007CE89CE8AB9A959A08B215B2E2B208BAEC
:1001E00015BAE2BAF2BF82B78032E8F39598AC98BC
:1001F000C0989498AD98AB9860E1F2BFA89582B78B
:100200008717E8F36A95C9F79A9549F7089500D0DA
:1002100000D000D09FE060E1F2BF81E088BFA895E8
:1002200088B780FFFDCF6A95B9F79A95A1F7089531
:100230008091600081BFC7E8D0E080E890E0A89599
:10024000E199FDCF67B760FDFACFCF3881F09FBB52
:100250008EBB0196E09A6DB317F06993F0CF799158
:100260007DBBF894E29A6713E19A7894E8CFD2DFE5
:100270008FEF81BF0895000C111CEE1C8A95D9F7F1
:100280000895869FE12C969FE00CC11DDF1F879F7C
:10029000E00CC11DDF1F979FC00DD11D08951F7E6B
:1002A000C9E8D0E001C0B3DFB301A895FF9FEE24F9
:1002B000C93831F460348BE57807B0F18FE113C0B1
:1002C00080918900681780918A00780768F7CB3899
:1002D00011F482E208C080918B00681780918C0035
:1002E000780710F380E2882EA89514FFFDCF1F7EBB
:1002F000C301080E191EEF1E861B970B80569F4FD9
:100300008154914080F68A9479F783E0B4DF1992A2
:10031000E99259DFCB3841F27DDF55DFCD3811F05E
:1003200079DF51DF85DF22C01F7EC0918300D0912D
:100330008400C3018C1B9D0B18F4CC27DD270EC055
:100340001F7760917F0070918000CFE3D0E099DF4C
:10035000CE3583E0D80710F0CEE5D3E080E1B816C3
:10036000BF1EC0937B00D0937C00EAC080918B00BD
:1003700090918C0080938300909384006091890019
:1003800070918A00681B790B05D080937F00909351
:10039000800008958FEC97E00196A8959F3F89070C
:1003A00021F0C0EEDCEF6DDFB9F7089589D097FD3D
:1003B00002C072FD6395C0916400D0916500009009
:1003C00066008093640090936500609366008C1BC8
:1003D0009D0B6009C0916700D09168000090690092
:1003E0000694D795C7950694D795C7958C1B9D0BFA
:1003F0006009C0916700D091680000906900C80F43
:10040000D91F061EC03075E0D70770E0070618F444
:10041000D694C79406C078E0071618F0072ED0E0EF
:10042000C0E0C0936700D093680000926900C09359
:100430007400D0937500009276008EE593E0D03082
:1004400072E0070640F08FEA91E0D03074E00706D2
:1004500010F087ED90E080937D0090937E008D2FCB
:10046000002009F08FEF809377000694D795C79509
:100470000694D795C7950694D795C7950694D795B2
:10048000C795C0936B00D0936C0000926D00C09331
:100490006E00D0936F000092700014FD45CF4CC0E9
:1004A00016FD31C0C0916B00D0916C0000906D00C2
:1004B0007DDF1FD0C0917400D09175000090760050
:1004C000279670E1F8948CB59DB5C80FD91FDBBD98
:1004D000CABD78BF0092620001606091630078B786
:1004E00078940895C0916E00D0916F0000907000D4
:1004F000E7DF14FD19DF00FDFCCF0895C0E0D8EB65
:100500008BE0082E0895C0917100D0917200009088
:10051000730082B78F71D81B0F0A30F0C0308AEC9D
:10052000D80788E0080608F4E9DFC0937100D0938B
:100530007200009273003ACFC0917B00D0917C0092
:1005400080917D0090917E00C817D90708F0EC01DA
:10055000CC15DD0508F0E6018EE593E08C1B9D0BC4
:1005600091F01D7FCF17DF0781F0609161006C3043
:1005700020F4880F991FCC0FDD1F1E7FC09580953A
:100580001E012C0108951260F8CF1160F7CFF5BD60
:1005900080E488BFE1E89498AD98AB989598AC98C2
:1005A000C0980895E3DE84E588BF89BF83E085BFF6
:1005B00080E48BBF7894BB24137EA89514FFFDCFF5
:1005C0006EDEC0917B00D0917C002096A1F78AE07E
:1005D000B81698F3812F8C7009F0FBBFF9DDF8DDB8
:1005E000F7DDD5DFA89514FFFDCF9EDEC0917B001F
:1005F000D0917C002096B1F38FE0B81698F3C7DF56
:1006000080B7886080BF37988BE18A95F1F7CFE893
:10061000D0E06E01F0936100106484E080936A0082
:100620006DDFC4DE6BDFC0936700D09368008093FA
:100630006900F0936A00CAD0D7D081E085BD17FD6C
:100640000FC047D05FD043D06BD043D08BD03FD0CA
:100650009BD03FD0BBD03BD0C7D00EC098DFCFCF10
:1006600036D0D3D036D0B9D032D09FD032D083D08C
:100670002ED067D02ED04DD0BB20F9F080916900EC
:10068000883010FDF8F4CF16DF0641F3E6018091C3
:1006900061008C3038F4839580936100259687ED56
:1006A00090E004C01F7B6B968EE593E0C817D907D6
:1006B00010F06C01C4CF6E01C2CF69DFABDD83DD0A
:1006C0007DDDA8DD8ECFF0936100106408951F7D5D
:1006D00001C01062E5DE809177009091770000FF05
:1006E000F2CF68B1612765FD08C089178F1F14FF1D
:1006F000F6CF8F9319DE8F91F0CF8A9581F716FF91
:10070000F1CE089587E087B9AD9810FD0895949AC9
:10071000089586E087B9949810FD0895AD9A0895DC
:1007200080E087B9F89488B3C09898B325B389134B
:10073000AC9A10FF2061322F11FF3F7EA5E3789421
:10074000089587E087B9F89485B3AC9895B328B33A
:100750008913C09A10FF2160322F11FF3E7FA8E35A
:100760007894089586E087B9949810FD08952860DC
:100770003860AB9A089580E087B9277F377FAB98C0
:1007800010FD0895949A089587E087B9F89485B389
:10079000AC9895B322B38913959A10FF2062322F3B
:1007A00011FF3F7DA2E37894089586E087B9F8941D
:1007B00082B3959892B325B38913AC9A10FF206148
:1007C000322F11FF3F7EA5E37894089580E087B92A
:1007D000AB9810FD0895AD9A089587E087B9AD985C
:1007E00010FD0895AB9A089586E087B9F89482B316
:1007F000959892B328B38913C09A10FF2160322FC5
:1008000011FF3E7FA8E37894089580E087B9F894BB
:1008100088B3C09898B322B38913959A10FF2062C9
:0C082000322F11FF3F7DA2E37894089571
:00000001FF
