:020000020000FC
:1000000016C09DC018951895099499C082C018957E
:100010008AC01895189518951895189518951895DB
:100020001895C7C01895697A40744042405B002417
:100030000FBEF4E0E0E6FEBFEDBF0292E036F00551
:1000400009F4EEE1E015F005C1F791B69092600079
:1000500094B604BE80E088BB81E087BB88E285BBA4
:1000600088E384BB80E182BB80E381BB82E083BF05
:1000700081E08EBDF5BD88E181BD88E081BDC8D03D
:10008000D7D0A8E89E918E9189569A4729F0E6E24A
:1000900085918D93AE38E1F790FE04C08AD08ED062
:1000A00092D080C292FE03C08ED083D07BC291FEDC
:1000B00002C08ED077C293FE05C07BD07AD083D0A9
:1000C00082D0FBCFA4D0292D38E020FF77D020FDAF
:1000D0007FD09ED026953A95C1F7F4CF9FB68A94EB
:1000E00009F4EAE79FBE18959FB68A9409F4E1E8FF
:1000F0009FBE18952C93E1E83F12E4E7832C24BCC3
:100100001895EAE75F12EEE6852CA8953C9344BC6F
:1001100018959FB640916200415008F40E7F4093BD
:1001200062009FBE18959FB640916300439540932F
:1001300063004F7011F4BF12BA949FBE18954CB56E
:100140005DB5829B18C04093780042E045BF509354
:1001500079004091630040937A0057FD189558B795
:1001600052FF18959FB6439540937A009FBE18950D
:10017000BF12BA941CC09FB6B3E0B5BFB091630084
:1001800057FD03C0F8B7F2FDB395F09178004F1B0F
:10019000F09179005F0BF0917A00BF0B4030F6E9E7
:1001A0005F07F0E0BF07B0E018F73A0110619FBEAB
:1001B000189578EC90E5AD98959A0EC074EB94E69E
:1001C000AB98AC9A09C070EA98E79498C09A04C0BA
:1001D0007CE89CE8AB98959A08B215B2E2B208BAEE
:1001E00015BAE2BAF2BF82B78032E8F39598AC98BC
:1001F000C098949AAD9AAB9A60E1F2BFA89582B785
:100200008717E8F36A95C9F79A9549F7089500D0DA
:1002100000D000D09FE060E1F2BF81E088BFA895E8
:1002200088B780FFFDCF6A95B9F79A95A1F7089531
:100230008091600081BFC6E8D0E080E890E0A8959A
:10024000E199FDCF67B760FDFACFCE3881F09FBB53
:100250008EBB0196E09A6DB317F06993F0CF799158
:100260007DBBF894E29A6713E19A7894E8CFD2DFE5
:100270008FEF81BF0895000C111CEE1C8A95D9F7F1
:100280000895869FE12C969FE00CC11DDF1F879F7C
:10029000E00CC11DDF1F979FC00DD11D08951F7E6B
:1002A000C8E8D0E001C0B3DFB301A895FF9FEE24FA
:1002B000C83831F460348BE57807B0F18FE113C0B2
:1002C00080918800681780918900780768F7CA389C
:1002D00011F482E208C080918A00681780918B0037
:1002E000780710F380E2882EA89514FFFDCF1F7EBB
:1002F000C301080E191EEF1E861B970B80569F4FD9
:100300008154914080F68A9479F783E0B4DF1992A2
:10031000E99259DFCA3841F27DDF55DFCC3811F060
:1003200079DF51DF85DF22C01F7E80E1B816BF1E56
:10033000C0918300D0918400C3018C1B9D0B18F4E5
:10034000CC27DD270EC01F7760917F007091800061
:10035000CFE3D0E096DFCE3583E0D80710F0CEE5CE
:10036000D3E0C0937B00D0937C00EAC080918A00E8
:1003700090918B008093830090938400609188001B
:1003800070918900681B790B05D080937F00909352
:10039000800008958FEC97E00196A8959F3F89070C
:1003A00021F0C0EEDCEF6DDFB9F7089589D097FD3D
:1003B00002C072FD6395C0916400D0916500009009
:1003C00066008093640090936500609366008C1BC8
:1003D0009D0B6009C0916700D09168000090690092
:1003E0000694D795C7950694D795C7958C1B9D0BFA
:1003F0006009C0916700D091680000906900C80F43
:10040000D91F061EC03075E0D70770E0070618F444
:10041000D694C79406C078E0071618F0072ED0E0EF
:10042000C0E0C0936700D093680000926900C09359
:100430007400D0937500009276008EE593E0D03082
:1004400072E0070640F08FEA91E0D03074E00706D2
:1004500010F087ED90E080937D0090937E008D2FCB
:10046000002009F08FEF809377000694D795C79509
:100470000694D795C7950694D795C7950694D795B2
:10048000C795C0936B00D0936C0000926D00C09331
:100490006E00D0936F000092700014FD45CF4CC0E9
:1004A00016FD31C0C0916B00D0916C0000906D00C2
:1004B0007DDF1FD0C0917400D09175000090760050
:1004C000279670E1F8948CB59DB5C80FD91FDBBD98
:1004D000CABD78BF0092620001606091630078B786
:1004E00078940895C0916E00D0916F0000907000D4
:1004F000E7DF14FD19DF00FDFCCF0895C0E0D8EB65
:100500008BE0082E0895C0917100D0917200009088
:10051000730082B78F71D81B0F0A30F0C0308AEC9D
:10052000D80788E0080608F4E9DFC0937100D0938B
:100530007200009273003ACFC0917B00D0917C0092
:1005400080917D0090917E00C817D90708F0EC01DA
:10055000CC15DD0508F0E6018EE593E08C1B9D0BC4
:1005600091F01D7FCF17DF0781F0609161006C3043
:1005700020F4880F991FCC0FDD1F1E7FC09580953A
:100580001E012C0108951260F8CF1160F7CFF5BD60
:1005900080E488BFE1E8949AAD9AAB9A9598AC98BC
:1005A000C0980895E3DE84E588BF89BF789483E02E
:1005B00085BF80E48BBFBB241B7EA89514FFFDCFB5
:1005C0006EDEC0917B00D0917C002096A1F78AE07E
:1005D000B81698F312FF01C0FBBFFADDF9DDF8DDB4
:1005E000D6DFA89514FFFDCF9FDEC0917B00D09190
:1005F0007C002096B1F38FE0B81698F3C8DF80B77F
:10060000886080BF37988BE18A95F1F7CFE8D0E01A
:100610006E01F0936100106484E080936A006EDFE5
:10062000C5DE6CDFC0936700D093680080936900DB
:10063000F0936A00CAD0D7D081E085BD17FD0FC006
:1006400047D05FD043D06BD043D08BD03FD09BD02E
:100650003FD0BBD03BD0C7D00EC099DFCFCF36D074
:10066000D3D036D0B9D032D09FD032D083D02ED094
:1006700067D02ED04DD0BB20F9F080916900883032
:1006800010FDF8F4CF16DF0641F3E601809161001A
:100690008C3038F4839580936100259687ED90E047
:1006A00004C01F7B6B968EE593E0C817D90710F046
:1006B0006C01C4CF6E01C2CF6ADFACDD84DD7EDDAC
:1006C000A9DD8ECFF0936100106408951F7D01C0F5
:1006D0001062E6DE809177009091770000FFF2CF04
:1006E00068B1612765FD08C089178F1F14FFF6CF19
:1006F0008F931ADE8F91F0CF8A9581F716FFF2CE95
:10070000089587E087B9AD9A10FD089594980895EB
:1007100086E087B9949A10FD0895AD98089580E019
:1007200087B9F89488B3C09898B325B38913AC9A65
:1007300010FF2061322F11FF3F7EA5E378940895CA
:1007400087E087B9F89485B3AC9895B328B389133B
:10075000C09A10FF2160322F11FF3E7FA8E37894EA
:10076000089586E087B9949A10FD0895277F377F12
:10077000AB98089580E087B928603860AB9A10FD87
:1007800008959498089587E087B9F89485B3AC9854
:1007900095B322B38913959A10FF2062322F11FF6F
:1007A0003F7DA2E37894089586E087B9F89482B3F8
:1007B000959892B325B38913AC9A10FF2061322F1C
:1007C00011FF3F7EA5E37894089580E087B9AB9A46
:1007D00010FD0895AD98089587E087B9AD9A10FD92
:1007E0000895AB98089586E087B9F89482B39598F8
:1007F00092B328B38913C09A10FF2160322F11FFE2
:100800003E7FA8E37894089580E087B9F89488B390
:10081000C09898B322B38913959A10FF2062322FA3
:0A08200011FF3F7DA2E378940895D4
:00000001FF
