:020000020000FC
:100000000DC07AC00000000009940000AFC00000DD
:10001000B7C00000000000000000000000240FBE78
:10002000F4E0EFE5FEBFEDBF0292E036F00509F423
:10003000EEE1E015F005C1F791B69092600094B63C
:1000400004BE80E088BB87E087BB80E085BB80E0A2
:1000500084BB80E082BB88E381BB82E083BF81E018
:100060008EBDF5BDE3D000D18091850090918600D2
:1000700089569A47C1F080E48093870084E7809393
:10008000880080E48093890082E480938A0080E481
:1000900080938B008BE580938C0089E680938500AC
:1000A0008AE780938600F4D090FE04C08FD093D06E
:1000B00097D007C092FE02C093D088D091FE01C0B5
:1000C00094D065D184E988BF89BF789483E085BFE7
:1000D00080E48BBFBB2414FFFECFF1D0C0917B0026
:1000E000D0917C002096B1F78AE0B816A0F3F8947E
:1000F0007CD07BD07AD068C24CB55DB5829B18C0ED
:100100004093780042E045BF5093790040916300EE
:1001100040937A0057FD189558B752FF18959FB62F
:10012000439540937A009FBE1895BF12BA941CC0A5
:100130009FB6B3E0B5BFB091630057FD03C0F8B7F9
:10014000F2FDB395F09178004F1BF09179005F0BB1
:10015000F0917A00BF0B4038F9E85F07F0E0BF0785
:10016000B0E018F73A0110619FBE18959FB6409114
:100170006200415008F40E7F409362009FBE1895C4
:100180009FB6409163004395409363004F7011F414
:10019000BF12BA949FBE18959FB68A9409F4E8EDF1
:1001A0009FBE18959FB68A9409F4EFED9FBE1895EF
:1001B0002C93EFED3F12E2ED832C24BC1895E8ED73
:1001C0005F12ECEC852C3C9344BC189578EC90E5E0
:1001D000949AC29A0EC074EB94E6939AC19A09C09D
:1001E00070EA98E7959AC09A04C07CE89CE8939AD4
:1001F000C29A08B215B2E2B208BA15BAE2BAF2BFB0
:1002000082B78032E8F368B3687F68BB62B3677C0B
:1002100062BB60E1F2BF82B78717E8F36A95D1F756
:100220009A9551F7089500D000D000D09FE060E18A
:10023000F2BF81E088BF88B780FFFDCF6A95C1F724
:100240009A95A9F708958091600081BFC5E8D0E034
:1002500080E890E00895E199FECF67B760FDFBCF9D
:100260009FBB8EBB01960895EEDFF5DFE09A8DB35C
:100270008993CD38D1F70895E6DFF894ECDF8991C2
:100280008DBBE29AE19ACD38C9F7E199FECF789417
:100290008FEF81BF0895000C111CEE1C8A95D9F7D1
:1002A0000895869FE12C969FE00CC11DDF1F879F5C
:1002B000E00CC11DDF1F979FC00DD11D08951F7E4B
:1002C00012FD64C0C7E8D0E0B301FF9FEE24C73839
:1002D00031F4603886E67807C0F18EE113C0809172
:1002E0008700681780918800780770F7C93811F483
:1002F00082E208C080918900681780918A0078079F
:1003000018F380E2882E14FFFECF1F7EC301080E73
:10031000191EEF1E861B970B805B9F4F815A9040E2
:1003200098F68A9481F783E0B6DF1992E99258DF54
:10033000C93851F27BDF54DFCB3811F077DF50DF63
:100340009BDF25C01F7E12FD21C080E1B816BF1EB5
:10035000C0918300D0918400C3018C1B9D0B18F4C5
:10036000CC27DD270EC01F7760917F007091800041
:10037000C0E4D0E096DFCF3583E0D80710F0CFE5BA
:10038000D3E0C0937B00D0937C00ECC008958091B3
:10039000890090918A0080938300909384006091FB
:1003A000870070918800681B790B05D080937F00CF
:1003B0009093800008958FEC97E001969F3F890706
:1003C00031F0C0E0D0E06DDFC052D340B2F3089509
:1003D00089D097FD02C072FD6395C0916400D091F1
:1003E00065000090660080936400909365006093C0
:1003F00066008C1B9D0B6009C0916700D09168005E
:10040000009069000694D795C7950694D795C7952F
:100410008C1B9D0B6009C0916700D0916800009013
:100420006900C80FD91F061EC03075E0D70770E0FD
:10043000070618F4D694C79406C078E0071618F09B
:10044000072ED0E0C0E0C0936700D0936800009210
:100450006900C0937400D0937500009276008FE518
:1004600093E0D03072E0070640F080EB91E0D030AE
:1004700074E0070610F088ED90E080937D00909383
:100480007E008D2F002009F08FEF80937700069477
:10049000D795C7950694D795C7950694D795C795D0
:1004A0000694D795C795C0936B00D0936C000092CB
:1004B0006D00C0936E00D0936F000092700014FD29
:1004C00041CF4CC016FD31C0C0916B00D0916C0083
:1004D00000906D007DDF1FD0C0917400D091750039
:1004E00000907600279670E1F8948CB59DB5C80F02
:1004F000D91FDBBDCABD78BF009262000160609168
:10050000630078B778940895C0916E00D0916F0021
:1005100000907000E7DF14FD15DF00FDFCCF0895AB
:10052000C0E0D8EB8BE0082E0895C0917100D09107
:1005300072000090730082B78F71D81B0F0A30F0E1
:10054000C0308AECD80788E0080608F4E9DFC093D9
:100550007100D0937200009273003ACFC0917B007B
:10056000D0917C0080917D0090917E00C817D907C2
:1005700008F0EC01CC15DD0508F0E6018FE593E00D
:100580008C1B9D0B91F01D7FCF17DF0781F06091D1
:1005900061006C3020F4880F991FCC0FDD1F1E7F87
:1005A000C09580951E012C0108951260F8CF11604E
:1005B000F7CFF5BD80E488BFEFED82B3877C82BBC7
:1005C00088B3887F88BB0895F4DF78941F7E14FF7A
:1005D000FECFB8DEC0917B00D0917C002096B9F3AD
:1005E0008FE0B816A0F3E5DF80B7886080BF8BE1AD
:1005F0008A95F1F7C0E9D0E06E01F09361001064D4
:1006000084E080936A008CDFE3DE8ADFC0936700BA
:10061000D093680080936900F0936A00CBD0D8D063
:1006200081E085BD17FD0FC048D060D044D06ED0AA
:1006300044D08ED040D09AD040D0BCD03CD0C8D08E
:100640000EC0B7DFD0CF37D0D5D037D0B9D033D068
:100650009FD033D085D02FD069D02FD04FD0BB20A2
:10066000F9F080916900883010FD00F5CF16DF06A3
:1006700041F3E601809161008C3038F483958093DA
:100680006100259688ED90E004C01F7B6B968FE596
:1006900093E0C817D90710F06C01C4CF6E01C2CF28
:1006A000F89487DFC3DD9CDD96DDC0DD8DCFF09350
:1006B0006100106408951F7D01C0106203DF809106
:1006C00077009091770000FFF2CF68B1612765FD58
:1006D00008C089178F1F14FFF6CF8F9333DE8F91D9
:1006E000F0CF8A9581F716FF0FCF089584E087B980
:1006F0003798949810FD0895959A089585E087B9E4
:100700003798959810FD0895949A0895379AF8941B
:1007100088B3C09898B328B38913C19A10FF226098
:10072000322F11FF3D7FA8E37894089584E087B9C4
:100730003798F89488B3C19898B328B38913C09AAE
:1007400010FF2160322F11FF3E7FA8E378940895B7
:1007500085E087B93798959810FD0895939A089584
:10076000379A939810FD0895959A089584E087B973
:100770003798F89488B3C19898B328B38913C29A6C
:1007800010FF2460322F11FF3B7FA8E37894089577
:1007900085E087B93798F89488B3C29898B328B39E
:1007A0008913C19A10FF2260322F11FF3D7FA8E309
:1007B00078940895379A939810FD0895949A08951F
:1007C00084E087B93798949810FD0895939A089516
:1007D00085E087B93798F89488B3C29898B328B35E
:1007E0008913C09A10FF2160322F11FF3E7FA8E3CA
:1007F00078940895379AF89488B3C09898B328B33A
:100800008913C29A10FF2460322F11FF3B7FA8E3A7
:04081000789408953B
:00000001FF
