:020000020000FC
:100000000DC068C000000000099400009DC0A6C09B
:10001000AFC00000000000000000000000240FBE80
:10002000F4E0EFE5FEBFEDBF0292E036F00509F423
:10003000EEE1E015F005C1F700E008BB00E007BB0A
:1000400000E005BB00E004BB00E002BB0BEB01BB22
:1000500002E003BF01E00EBD05BCE7ED0EE5009335
:100060007D0003E000937E0004E200937F0004E043
:1000700000938000E6D00FEF01BFD7D0E4B604BEF6
:10008000E0FE06C0A4D0D1D0A7D0CFD0AAD007C060
:10009000E2FE02C0A6D09BD0E1FE01C0A7D0D1D025
:1000A0000CE908BF09BF789403E005BF00E40BBF6B
:1000B000BB2484FFFECFD0D0C0917900D0917A00CC
:1000C0002096B1F70AE0B016A0F3F8948FD08ED046
:1000D0008DD0ECC14CB55DB5829B18C040937600C5
:1000E00042E045BF509377004091750040937800FF
:1000F00057FD189558B752FF18951FB64395409372
:1001000078001FBE1895B010BA941CC01FB6B3E09B
:10011000B5BFB091750057FD03C0F8B7F2FDB395B8
:10012000F09176004F1BF09177005F0BF091780013
:10013000BF0B4038F9E85F07F0E0BF07B0E018F701
:100140003A0180611FBE18951FB64091730041505F
:1001500008F47E7F409373001FBE18951FB6409130
:100160007400415008F47D7F409374001FBE1895C1
:100170001FB6409175004395409375004F7011F480
:10018000B010BA941FBE18951FB68A9409F4E0ED1A
:100190001FBE18951FB68A9409F4E7ED1FBE189587
:1001A0006C93E7ED3010EAEC832C24BC18955010CA
:1001B00005C0E0EDE8B09C9344BC1895E4EC9C933A
:1001C000852C03D0E8B044BC1895A895089538EC68
:1001D00010E5979A909A0FC034EB14E6949A919A8E
:1001E0000AC030EA18E7959A939A05C03CE81CE8E3
:1001F000949A909A00C048B355B3D2B348BB55BB4C
:10020000D2BB02BE02B70032E8F3C2B3C47FC2BBA6
:10021000C2B3CF74C2BB20E102BE02B70317E8F33A
:100220002A95D1F71A9551F708951FE020E102BEF3
:1002300008BE08B700FFFDCF2A95C9F71A95B1F798
:10024000089510E820E102BE02B7083CE8F32A95C1
:10025000D1F71A95B9F708958F7E82FD23C000E18A
:10026000B016B01CE301C295D295CF70CD27DF70D8
:10027000CD278F7700917F0010918000C01BD10B9C
:1002800018F4CC27DD2709C0EF9600917D0010916E
:100290007E00C017D10708F0E801C0937900D09321
:1002A0007A00CAC008952091750082D017FF20916E
:1002B0007500C0916000D091610090906200009341
:1002C000600010936100209362000C1B1D0B290934
:1002D000C0916300D0916400909065009694D7958A
:1002E000C7959694D795C7950C1B1D0B2909C091EE
:1002F0006300D091640090906500C00FD11F921EE2
:10030000C03035E0D30730E0930610F4D694C7949C
:1003100038E0931618F0932ED0E0C0E0C09363004D
:10032000D093640090926500C0937000D0937100E8
:10033000909272000EE513E0D03032E0930640F068
:100340000FEA11E0D03034E0930610F007ED10E032
:1003500000937B0010937C009694D795C795969454
:10036000D795C7959694D795C7959694D795C795E1
:10037000C0936700D093680090926900C0936A00B0
:10038000D0936B0090926C0084FD66CF51C0C091F9
:100390006700D09168009090690085DF84FD5CDF84
:1003A00070FDFCCFC0917000D091710090907200F0
:1003B000279630E1F8940CB51DB5C00FD11FDBBDF9
:1003C000CABD38BF90927300716078940895C0914F
:1003D0006A00D0916B0090906C00279638E0F894FA
:1003E0000CB51DB5C00FD11FD9BDC8BD38BF909287
:1003F0007400726078940895C0916D00D0916E0081
:1004000090906F0002B70F71D01B900830F0C03091
:100410000AECD00708E0900620F4C0E0D8EB0BE02F
:10042000902EC0936D00D0936E0090926F003BCFE2
:10043000C0917900D0917A0000917B0010917C00EE
:10044000C017D10708F0E801CC15DD0508F0E6017A
:100450000EE513E00C1B1D0B91F08D7FC015D00530
:1004600081F0209181002C3020F4000F111FCC0F5F
:10047000DD1F8E7FC09500951E01280108958260C2
:10048000F8CF8160692FF6CF05BC02B30F7402BBB1
:1004900002B3047F02BB08950CE00A95F1F70895BA
:1004A0000FEFE02EE01670FDE9F30895EDDF78948C
:1004B0008F7E84FFFECFD0DEC0917900D0917A008C
:1004C0002096B9F30FE0B016A0F302B3047F02BB8D
:1004D00000B7086000BF37980BE10A95F1F7CBE64B
:1004E000D0E06E010092810087DF50D165D101E03C
:1004F00005BD87FD18C04BD028F000928100D6D0F2
:10050000EBD006C0D3D078DF42D0E6D075DF3FD045
:1005100005D172DF3CD018D16FDF39D037D16CDF15
:1005200036D04AD117C033D028F40092810055D17B
:1005300038D106C052D160DF2AD033D15DDF27D059
:1005400014D15ADF24D0F5D057DF21D0D6D054DFD4
:100550001ED0B7D080FDAACFBB2009F478C000918F
:1005600081000C3028F50395009381000091640010
:1005700000300091650011E00107D0F0E601C73DB1
:1005800000E0D00710F427966E0136DFB2CF88DF87
:1005900084FD62DE85DF3E2D84FD5EDE3E1570FD4E
:1005A000D9F38894E5FE089470FF009281000895C5
:1005B000EEDE87FD1BC067D0B8F078D0E8DE50D003
:1005C00098F08AD0E4DE5FD078F0A8D0E0DE48D0A2
:1005D00058F0BAD0DCDE57D038F0D8D0D8DE40D0D2
:1005E00018F0EAD0D4DE1AC04FDF79CF39D0E0F36B
:1005F000F4D0CDDE48D0C0F3D4D0C9DE31D0A0F3E2
:10060000B4D0C5DE40D080F394D0C1DE29D060F3F1
:1006100074D0BDDE38D040F354D0B9DEBB20B9F081
:10062000C014D00409F3009165000830E8F6009189
:1006300081000C3020F4039500938100BACFE601CD
:10064000CE3503E0D00710F4E6966E01B2CFF894F1
:100650001BDFEBDDC6DDC0DDE8DD28CF08940895A3
:1006600070FFFCCF84FDF8DD459BFACF15DFE8B0C5
:10067000E5FEF6CFACDE84FDEFDDE5FEF1CF71FDEA
:10068000FACF8894089570FFE9CF84FDE5DD4599A0
:10069000FACF02DFE8B0E5FCF6CF99DE84FDDCDDC1
:1006A000E5FCF1CF71FDFACF8894089503E007B916
:1006B0006F779F77979880FD089560629062959A12
:1006C000089502E007B96F7D9F7D959880FD08959C
:1006D00060689068979A089504E007B9F89402B3A7
:1006E000939812B362B30113919A80FF6260962FC0
:1006F00081FF9D7FA2E37894089503E007B9F89401
:1007000002B3919812B362B30113939A80FF6860A9
:10071000962F81FF977FA2E37894089502E007B9AE
:100720006F7D9F7D959880FD089560619061949A9A
:10073000089504E007B96F7E9F7E949880FD089528
:1007400060629062959A089503E007B9F89402B345
:10075000919812B362B30113909A80FF6160962F53
:1007600081FF9E7FA2E37894089502E007B9F89490
:1007700002B3909812B362B30113919A80FF626042
:10078000962F81FF9D7FA2E37894089504E007B936
:100790006F7E9F7E949880FD089560689068979A18
:1007A000089503E007B96F779F77979880FD0895C4
:1007B00060619061949A089502E007B9F89402B3D9
:1007C000909812B362B30113939A80FF6860962FDA
:1007D00081FF977FA2E37894089504E007B9F89425
:1007E00002B3939812B362B30113909A80FF6160D1
:0C07F000962F81FF9E7FA2E3789408956D
:00000001FF
