:020000020000FC
:100000000DC068C000000000099400009DC0000001
:10001000A5C00000000000000000000000240FBE8A
:10002000F4E0EFE5FEBFEDBF0292E036F00509F423
:10003000EEE1E015F005C1F700E008BB00E007BB0A
:1000400000E005BB00E004BB00E002BB0BEB01BB22
:1000500002E003BF01E00EBD05BCEDEC0EE5009330
:100060007D0003E000937E0004E200937F0004E043
:1000700000938000D3D00FEF01BFC4D014B604BEEC
:1000800010FE06C091D0BED094D0BCD097D007C08F
:1000900012FE02C093D088D011FE01C094D0BED011
:1000A00004E908BF09BF789403E005BF00E40BBF73
:1000B000BB2484FFFECFBDD0C0917900D0917A00DF
:1000C0002096B1F70AE0B016A0F3F8947CD07BD06C
:1000D0007AD0CFC14CB55DB5829B18C040937600F5
:1000E00042E045BF509377004091750040937800FF
:1000F00057FD189558B752FF18951FB64395409372
:1001000078001FBE1895B010BA941CC01FB6B3E09B
:10011000B5BFB091750057FD03C0F8B7F2FDB395B8
:10012000F09176004F1BF09177005F0BF091780013
:10013000BF0B4038F9E85F07F0E0BF07B0E018F701
:100140003A0180611FBE18951FB64091740041505E
:1001500008F47E7F409374001FBE18951FB640912F
:1001600075004395409375004F7011F4B010BA9428
:100170001FBE18951FB68A9409F4E6EC1FBE1895A9
:100180001FB68A9409F4EDEC1FBE18956C93EDEC44
:100190003010E0EC832C24BC1895E6EC5010EAEB10
:1001A000852C9C9344BC189538EC10E5979A909A4E
:1001B0000FC034EB14E6949A919A0AC030EA18E71B
:1001C000959A939A05C03CE81CE8949A909A00C0CE
:1001D00048B355B3D2B348BB55BBD2BB02BE02B77E
:1001E0000032E8F3C2B3C47FC2BBC2B3CF74C2BB98
:1001F00020E102BE02B70317E8F32A95D1F71A955A
:1002000051F708951FE020E102BE08BE08B700FFC5
:10021000FDCF2A95C9F71A95B1F7089510E820E1A6
:1002200002BE02B7083CE8F32A95D1F71A95B9F750
:1002300008958F7E82FD23C000E1B016B01CE3015B
:10024000C295D295CF70CD27DF70CD278F770091E3
:100250007F0010918000C01BD10B18F4CC27DD2744
:1002600009C0EF9600917D0010917E00C017D10764
:1002700008F0E801C0937900D0937A00CBC00895CC
:1002800089D017FD02C032FD2395C0916000D09146
:1002900061009090620000936000109361002093D1
:1002A00062000C1B1D0B2909C0916300D0916400F2
:1002B000909065009694D795C7959694D795C795D5
:1002C0000C1B1D0B2909C0916300D0916400909014
:1002D0006500C00FD11F921EC03035E0D30730E05B
:1002E000930618F4D694C79406C038E0931618F015
:1002F000932ED0E0C0E0C0936300D093640090924E
:100300006500C0937000D0937100909272000EE56A
:1003100013E0D03032E0930640F00FEA11E0D03025
:1003200034E0930610F007ED10E000937B0010938B
:100330007C000D2F992009F00FEF00937300969425
:10034000D795C7959694D795C7959694D795C79501
:100350009694D795C795C0936700D0936800909204
:100360006900C0936A00D0936B0090926C0084FD8A
:1003700060CF4CC086FD31C0C0916700D09168004D
:10038000909069007DDF1FD0C0917000D091710006
:1003900090907200279630E1F8940CB51DB5C00F0F
:1003A000D11FDBBDCABD38BF90927400716020912F
:1003B000750038B778940895C0916A00D0916B00A9
:1003C00090906C00E7DF84FD34DF70FDFCCF089572
:1003D000C0E0D8EB0BE0902E0895C0916D00D09155
:1003E0006E0090906F0002B70F71D01B900830F034
:1003F000C0300AECD00708E0900608F4E9DFC093AB
:100400006D00D0936E0090926F003ACFC09179004A
:10041000D0917A0000917B0010917C00C017D10729
:1004200008F0E801CC15DD0508F0E6010EE513E063
:100430000C1B1D0B91F08D7FC015D00581F0209114
:1004400081002C3020F4000F111FCC0FDD1F8E7F98
:10045000C09500951E01280108958260F8CF816043
:10046000F7CF05BC02B30F7402BB02B3047F02BB1B
:100470000895F7DF78948F7E84FFFECFDADEC09197
:100480007900D0917A002096B9F30FE0B016A0F36E
:10049000E8DF00B7086000BF37980BE10A95F1F775
:1004A000CFE8D0E06E0100928100806404E0009308
:1004B00066008EDFE5DE8CDFC0936300D0936400BE
:1004C0000093650000926600D8D0EDD001E005BD34
:1004D00087FD0FC049D061D044D075D045D095D0AC
:1004E00040D0A9D041D0C9D03CD0DDD00EC0B9DFBA
:1004F000CFCF37D0E9D038D0CBD033D0ADD034D077
:100500008FD02FD071D030D053D0BB20F9F00091D4
:100510006500083080FD00F5C014D00441F3E60109
:10052000009181000C3038F40395009381002596EA
:1005300007ED10E004C08F7B6B960EE513E0C0174B
:10054000D10710F06801C4CF6E01C2CFF89489DFE3
:1005500059DE34DE2EDE56DE8CCF009281008064C0
:10056000089508DF30E002C005DF30E2009173003B
:100570001091730070FFF1CF28B1232725FD08C02B
:100580000117001D84FFF6CF0F9353DE0F91F0CFBC
:100590000A9581F786FF10CF089503E007B96F77BA
:1005A0009F77979880FD089560629062959A08956C
:1005B00002E007B96F7D9F7D959880FD0895606882
:1005C0009068979A089504E007B9F89402B3939855
:1005D00012B362B30113919A80FF6260962F81FF7C
:1005E0009D7FA2E37894089503E007B9F89402B3DD
:1005F000919812B362B30113939A80FF6860962FAB
:1006000081FF977FA2E37894089502E007B96F7D98
:100610009F7D959880FD089560619061949A0895FA
:1006200004E007B96F7E9F7E949880FD0895606214
:100630009062959A089503E007B9F89402B39198EF
:1006400012B362B30113909A80FF6160962F81FF0D
:100650009E7FA2E37894089502E007B9F89402B36C
:10066000909812B362B30113919A80FF6260962F43
:1006700081FF9D7FA2E37894089504E007B96F7E1F
:100680009F7E949880FD089560689068979A089579
:1006900003E007B96F779F77979880FD08956061B1
:1006A0009061949A089502E007B9F89402B3909883
:1006B00012B362B30113939A80FF6860962F81FF93
:1006C000977FA2E37894089504E007B9F89402B301
:1006D000939812B362B30113909A80FF6160962FD2
:0A06E00081FF9E7FA2E37894089545
:00000001FF
