:020000020000FC
:100000000DC068C000000000099400009DC0A6C09B
:10001000AFC00000000000000000000000240FBE80
:10002000F4E0EFE5FEBFEDBF0292E036F00509F423
:10003000EEE1E015F005C1F700E008BB00E007BB0A
:1000400000E005BB00E004BB00E002BB0BEB01BB22
:1000500002E003BF01E00EBD05BCE7ED0EE5009335
:100060007D0003E000937E0004E200937F0004E043
:1000700000938000E5D00FEF01BFD6D0E4B604BEF8
:10008000E0FE06C0A3D0D0D0A6D0CED0A9D007C065
:10009000E2FE02C0A5D09AD0E1FE01C0A6D0D0D029
:1000A0000CE908BF09BF789403E005BF00E40BBF6B
:1000B000BB2484FFFECFCFD0C0917900D0917A00CD
:1000C0002096B1F70AE0B016A0F3F8948ED08DD048
:1000D0008CD0F5C14CB55DB5829B18C040937600BD
:1000E00042E045BF509377004091750040937800FF
:1000F00057FD189558B752FF18951FB64395409372
:1001000078001FBE1895B010BA941CC01FB6B3E09B
:10011000B5BFB091750057FD03C0F8B7F2FDB395B8
:10012000F09176004F1BF09177005F0BF091780013
:10013000BF0B4038F9E85F07F0E0BF07B0E018F701
:100140003A0180611FBE18951FB64091730041505F
:1001500008F47E7F409373001FBE18951FB6409130
:100160007400415008F47D7F409374001FBE1895C1
:100170001FB6409175004395409375004F7011F480
:10018000B010BA941FBE18951FB68A9409F4E0ED1A
:100190001FBE18951FB68A9409F4E7ED1FBE189587
:1001A0006C93E7ED3010EAEC832C24BC18955010CA
:1001B00005C0E0EDE8B09C9344BC1895E4EC9C933A
:1001C0009C939C93852CE8B044BC189538EC10E5C2
:1001D000979A909A0FC034EB14E6949A919A0AC0B9
:1001E00030EA18E7959A939A05C03CE81CE8949A7F
:1001F000909A00C048B355B3D2B348BB55BBD2BBED
:1002000002BE02B70032E8F3C2B3C47FC2BBC2B3BE
:10021000CF74C2BB20E102BE02B70317E8F32A95F0
:10022000D1F71A9551F708951FE020E102BE08BEEC
:1002300008B700FFFDCF2A95C9F71A95B1F70895C1
:1002400010E820E102BE02B7083CE8F32A95D1F796
:100250001A95B9F708958F7E82FD23C000E1B0168C
:10026000B01CE301C295D295CF70CD27DF70CD27AA
:100270008F7700917F0010918000C01BD10B18F484
:10028000CC27DD2709C0EF9600917D0010917E00FC
:10029000C017D10708F0E801C0937900D0937A0025
:1002A000D4C00895209175008AD017FF2091750061
:1002B000C0916000D0916100909062000093600056
:1002C00010936100209362000C1B1D0B2909C09143
:1002D0006300D0916400909065009694D795C7957F
:1002E0009694D795C7950C1B1D0B2909C0916300E7
:1002F000D091640090906500C00FD11F921EC03055
:1003000035E0D30730E0930618F4D694C79405C0BF
:10031000D03031E0930608F48F7B38E0931618F064
:10032000932ED0E0C0E0C0936300D093640090921D
:100330006500C0937000D0937100909272000EE53A
:1003400013E0D03032E0930640F00FEA11E0D030F5
:1003500034E0930610F007ED10E000937B0010935B
:100360007C009694D795C7959694D795C795969403
:10037000D795C7959694D795C795C0936700D093A6
:10038000680090926900C0936A00D0936B009092CD
:100390006C0084FD60CF55C086FD3AC0C0916700F7
:1003A000D0916800909069007DDF84FD54DF70FD7E
:1003B000FCCFC0917000D091710090907200279690
:1003C00030E1F8940CB51DB5C00FD11FDBBDCABD1F
:1003D00038BF90927300716078940895C0916A005C
:1003E000D0916B0090906C00279628E0F8940CB5A3
:1003F0001DB5C00FD11FD9BDC8BD28BF90927400D4
:10040000726078940895C0E0D8EB0BE0902E0895C8
:10041000C0916D00D0916E0090906F0002B70F7187
:10042000D01B900830F0C0300AECD00708E09006EE
:1004300008F4E9DFC0936D00D0936E0090926F00D6
:1004400031CFC0917900D0917A0000917B0010915A
:100450007C00C017D10708F0E801CC15DD0508F0D5
:10046000E6010EE513E00C1B1D0B91F08D7FC0150E
:10047000D00581F0209181002C3020F4000F111F55
:10048000CC0FDD1F8E7FC09500951E0128010895B9
:100490008260F8CF8160F7CF05BC02B30F7402BB56
:1004A00002B3047F02BB089500E10A95F1F70895B5
:1004B00000E8E02A84FDCFDEE7FCFCCF0895ECDF06
:1004C00078948F7E84FFFECFC6DEC0917900D091F4
:1004D0007A002096B9F30FE0B016A0F3DDDF00B785
:1004E000086000BF37980BE10A95F1F7CBE6D0E042
:1004F0006E0100928100806404E00093660083DF57
:10050000D1DE81DFC0936300D09364000093650067
:100510000092660000D115D101E005BD87FD1CC029
:100520006CD086FF0BC0E5FE09C08F93816083D03D
:100530008F9197D0B8D0BCDFBBDF05C07CD059D03D
:1005400090D05BD0B0D055D0C4D057D0E4D051D0EB
:10055000F8D019C0A1DFC2CF4CD086FF09C0E5FC9E
:1005600007C08F938160FED08F91E0D0C3D005C0CB
:10057000F9D043D0DBD03DD0BDD03FD09FD039D0D3
:1005800081D03BD063D0BB20F9F0009165000830EA
:1005900080FD00F5C014D004E9F2E601009181006D
:1005A0000C3038F4039500938100279607ED10E096
:1005B00004C08F7B6B960EE513E0C017D10710F0D7
:1005C0006801ACCF6E01AACFF89466DF2DDE08DE9D
:1005D00002DE2ADE74CF6CDF6BDF3E2D70FF05C0BC
:1005E00084FD39DE3E15D1F30895009281008064C8
:1005F0000895D2DE3E2D3F7D03C0CEDE3E2D30621B
:1006000086FDE9CF70FFF1CF84FD25DEE8B0E3166B
:10061000C9F34ADFE8B0E316A9F346DFE8B0E31612
:1006200089F3DCDE84FD17DEE31619F071FDFACFE5
:1006300008958064E7CF03E007B96F779F779798B5
:1006400080FD089560629062959A089502E007B96E
:100650006F7D9F7D959880FD089560689068979A5A
:10066000089504E007B9F89402B3939812B362B303
:100670000113919A80FF6260962F81FF9D7FA2E314
:100680007894089503E007B9F89402B3919812B3EF
:1006900062B30113939A80FF6860962F81FF977F62
:1006A000A2E37894089502E007B96F7D9F7D959845
:1006B00080FD089560619061949A089504E007B9FF
:1006C0006F7E9F7E949880FD089560629062959AF7
:1006D000089503E007B9F89402B3919812B362B396
:1006E0000113909A80FF6160962F81FF9E7FA2E3A5
:1006F0007894089502E007B9F89402B3909812B381
:1007000062B30113919A80FF6260962F81FF9D7FF3
:10071000A2E37894089504E007B96F7E9F7E9498D1
:1007200080FD089560689068979A089503E007B97E
:100730006F779F77979880FD089560619061949A94
:10074000089502E007B9F89402B3909812B362B327
:100750000113939A80FF6860962F81FF977FA2E331
:100760007894089504E007B9F89402B3939812B30B
:1007700062B30113909A80FF6160962F81FF9E7F84
:06078000A2E37894089545
:00000001FF
