:020000020000FC
:1000000016C09EC01895189509949AC083C018957B
:100010008BC018951895CAC01895189518951895FD
:1000200018958EC01895697A40744042405B002450
:100030000FBEF4E0EFE5FEBFEDBF0292E036F00543
:1000400009F4EEE1E015F005C1F791B69092600079
:1000500094B604BE80E088BB80E087BB80E385BBAC
:1000600080E084BB80E082BB8BEB81BB82E083BFFE
:1000700081E08EBDF5BD88E181BD88E081BDC5D040
:10008000D4D0A9E89E918E9189569A4729F0E6E24C
:1000900085918D93AF38E1F790FE04C087D08BD067
:1000A0008FD03AC292FE04C08BD080D0006834C298
:1000B00091FE02C08AD030C293FE05C077D076D0C0
:1000C0007FD07ED0FBCFA0D0292D38E020FF73D089
:1000D00020FD7BD09AD026953A95C1F7F4CF9FB6F4
:1000E0008A9409F4EBE79FBE18959FB68A9409F4A9
:1000F000E2E89FBE18952C93E2E83F12E5E7832CD7
:1001000024BC1895EBE75F12EFE6852CA8953C938D
:1001100044BC18959FB640916200415008F40E7F90
:10012000409362009FBE18959FB64091630043952F
:10013000409363004F7011F4BF12BA949FBE18959C
:100140009FB641B1403051F1403679F0403881F0EE
:10015000403A39F0483A29F1483BE1F0483FF1F0A4
:1001600011F404FF146145EC1EC014FF006319C0B4
:1001700005FF17C004FF04C073B06F2E0F7E11C0BF
:1001800063B00F7D0EC0F3B94AEF10FD4FEF4093FF
:10019000850007C04091850043B9F8CF46B7406954
:1001A00002C046B7406846BF9FBE189578EC90E500
:1001B000979A909A0EC074EB94E6949A919A09C01B
:1001C00070EA98E7959A939A04C07CE89CE8949A20
:1001D000909A08B215B2E2B208BA15BAE2BAF2BF02
:1001E00082B78032E8F362B3647F62BB62B36F743C
:1001F00062BB60E1F2BFA89582B78717E8F36A9502
:10020000C9F79A9549F7089500D000D000D09FE033
:1002100060E1F2BF81E088BFA89588B780FFFDCF7D
:100220006A95B9F79A95A1F708958091600081BF0A
:10023000C7E8D0E080E890E0A895E199FDCF67B7E6
:1002400060FDFACFCF3881F09FBB8EBB0196E09A5C
:100250006DB317F06993F0CF79917DBBF894E29A72
:100260006713E19A7894E8CFD2DF8FEF81BF0895CA
:10027000000C111CEE1C8A95D9F70895869FE12C7D
:10028000969FE00CC11DDF1F879FE00CC11DDF1F83
:10029000979FC00DD11D089512FD13C012FD11C00E
:1002A000CFE3D0E0EBDFCE3583E0D80710F0CEE52A
:1002B000D3E080E1B816BF1EC0937B00D0937C00D2
:1002C000F9C0E3011F76CC0FC295209691F3CE01C1
:1002D0006DE373E0E5CF80918B0090918C0080936B
:1002E0008300909384006091890070918A00681B5C
:1002F000790B05D080937F009093800008958FEC58
:1003000097E00196A8959F3F890721F0C0EEDCEFAA
:10031000B5DFB9F7089589D097FD02C072FD6395E6
:10032000C0916400D09165000090660080936400E5
:1003300090936500609366008C1B9D0B6009C091D3
:100340006700D0916800009069000694D795C79522
:100350000694D795C7958C1B9D0B6009C0916700CB
:10036000D091680000906900C80FD91F061EC030E8
:100370007EE0D70770E0070618F4D694C79406C04D
:1003800078E0071618F0072ED0E0C0E0C0936700B1
:10039000D093680000926900C0937400D0937500F8
:1003A000009276008EE593E0D03072E0070640F0D0
:1003B0008FEA91E0D03074E0070610F087ED90E00E
:1003C00080937D0090937E008D2F002009F08FEFA9
:1003D000809377000694D795C7950694D795C795CF
:1003E0000694D795C7950694D795C795C0936B008B
:1003F000D0936C0000926D00C0936E00D0936F009C
:100400000092700014FD4ACF51C016FD31C0C0915A
:100410006B00D0916C0000906D007DDF1FD0C0910B
:100420007400D091750000907600279670E1F894E2
:100430008CB59DB5C80FD91FDBBDCABD78BF009272
:10044000620001606091630078B778940895C0916C
:100450006E00D0916F0000907000E7DF14FD1EDF8A
:1004600000FDFCCF0895C0E0D8EB8BE0082E089586
:10047000C0E1DEE080E0082EF0DFC0917100D09195
:1004800072000090730082B78F71D81B0F0A30F092
:10049000C0308AECD80788E0080608F4E4DFC0938F
:1004A0007100D09372000092730035CFC0917B0031
:1004B000D0917C0080917D0090917E00C817D90773
:1004C00008F0EC01CC15DD0508F0E6018EE593E0BF
:1004D0008C1B9D0B91F01D7FCF17DF0781F0609182
:1004E00061006C3020F4880F991FCC0FDD1F1E7F38
:1004F000C09580951E012C0108951260F8CF1160FF
:10050000F7CFF5BD80E488BFE2E882B38F7482BB89
:1005100082B3847F82BB0895DEDE84E588BF89BF15
:10052000006382E582B985EC86BF7894BB24137E94
:10053000A89514FFFDCFB0DEC0917B00D0917C0068
:100540002096A1F78AE0B81698F312FFF6BF3DDEB9
:100550003CDE3BDED6DFA89514FFFDCF9FDEC091C9
:100560007B00D0917C002096B1F38FE0B81698F311
:10057000C8DF80B7886080BF37988BE18A95F1F734
:10058000CFE8D0E06E01F0936100106484E08093C6
:100590006A0069DFC0DE67DFC0936700D093680040
:1005A00080936900F0936A00D6D0EBD081E085BDDE
:1005B00017FD0FC047D05FD043D073D043D093D046
:1005C0003FD0A7D03FD0C7D03BD0DBD00EC099DF03
:1005D000CFCF36D0E7D036D0C9D032D0ABD032D0A2
:1005E0008DD02ED06FD02ED051D0BB20F9F080917D
:1005F0006900883010FDF8F4CF16DF0641F3E601FC
:10060000809161008C3038F4839580936100259649
:1006100087ED90E004C01F7B6B968EE593E0C817D2
:10062000D90710F06C01C4CF6E01C2CF6ADFEFDDD5
:10063000C7DDC1DDECDD8ECFF0936100106408955D
:100640001F7D01C01062E1DE8091770090917700FC
:1006500000FFF2CF68B1612765FD08C089178F1FC1
:1006600014FFF6CF8F931ADE8F91F0CF8A9581F722
:1006700016FFEDCE089583E087B92F773F779798DF
:1006800010FD089520623062959A089582E087B93E
:100690002F7D3F7D959810FD089520683068979ACA
:1006A000089581E087B9F89482B3939892B322B306
:1006B0008913919A10FF2260322F11FF3D7FA2E330
:1006C0007894089583E087B9F89482B3919892B3AF
:1006D00022B38913939A10FF2860322F11FF377FBE
:1006E000A2E37894089582E087B92F7D3F7D9598A5
:1006F00010FD089520613061949A089581E087B9D2
:100700002F7E3F7E949810FD089520623062959A66
:10071000089583E087B9F89482B3919892B322B395
:100720008913909A10FF2160322F11FF3E7FA2E3C0
:100730007894089582E087B9F89482B3909892B340
:1007400022B38913919A10FF2260322F11FF3D7F4F
:10075000A2E37894089581E087B92F7E3F7E949834
:1007600010FD089520683068979A089583E087B94E
:100770002F773F77979810FD089520613061949A04
:10078000089582E087B9F89482B3909892B322B327
:100790008913939A10FF2860322F11FF377FA2E34D
:1007A0007894089581E087B9F89482B3939892B3CE
:1007B00022B38913909A10FF2160322F11FF3E7FE0
:0607C000A2E37894089505
:101C0000E4E0FFE5FEBFEDBF00E0ECEBFEE0C0E886
:101C1000D0E0A0E6B0E042E045BD5CEE539571F047
:101C200040EC04BD48BFA03619F0E8B6E6FC46C05B
:101C30008299F9CF04BD48BFE8B6E6FCE1C1829BBA
:101C4000FBCF04BD48BFE8B6E6FCE8CF8299FBCFE6
:101C500034B404BD48BFE8B6E6FCD2C1829BFBCFDA
:101C600024B4022C030C802C07940694402C069478
:101C70008008809420943094409460EE83E084BC8B
:101C800048BFE8B6E6FCBCC1829BFBCF84BC48BF22
:101C9000E8B6E6FCC3CF8299FBCF0894E8B6E6FC31
:101CA00023C0829BFBCFE8B6E6FCB8CF8299FBCF7E
:101CB0008894E8B6E6FC18C0829BFBCF43BC88E161
:101CC000929A8A9A34BC48BFE8B6E6FEFDCF929855
:101CD00024BC48BFE8B6E6FEFDCF8A9589F7C0E68A
:101CE000D0E060E081E00BC0679548F6815068F570
:101CF0005CEE0994CA17DB07D1F0699188E066951C
:101D0000929A34BC48BFE8B610F0E7FC02BBE6FE8E
:101D1000FACF929808F0929A24BC48BFE8B610F027
:101D2000E7FC02BBE6FEFACF8A9549F7E3CF929A29
:101D300034BC48BFC0E8D0E0A0E6B0E0E8B6E7FEBB
:101D4000FDCF8A9802BB6ACF80E060E898CFECEBC9
:101D5000FEE0C0E8D0E0F8CF009000000090000066
:101D60000090000000900000009000000090000033
:101D70000090000000900000000000006B3121F78F
:101D8000562E3796E1CF962E56263496DDCF762EF8
:101D900056263496D9CF662E56263496D5CF6E3039
:101DA000B1F656263596D0CF69935626CF3584E0C6
:101DB000D80768F681E0681A700A09F43C96C4CF27
:101DC0006511C5CFC0E8D0E0699199918991FD0175
:101DD0007BE170839182028372E073837EE074837F
:101DE0006583068317966130A1F48BE0838388E0D6
:101DF0008D93EF01ECEDFFE185918D93E43EE1F7EA
:101E0000FE01819161918627EA17FB07D9F78D932F
:101E10009ECF6D3151F5792F90E0039683839283A5
:101E200003970D938A95E9F789916991603380074B
:101E300094E0790779F460878991803059F4699149
:101E400060308EE131F0613083E919F0623087E073
:101E500009F482870D93D5CF8017900709F5D990A3
:101E6000C9905601AA0CBB1CCCCF6330E1F06230A4
:101E700041F2603131F2613121F2663069F3623151
:101E8000F1F1833F73E0970758F4643109F166314B
:101E900069F127966531C1F16331F9F10000000065
:101EA00080EC8683AECF90398FE071F0913982E07B
:101EB00059F092398AE041F0943982E329F0903860
:101EC00080E011F0913861F78D9383E0838399CF9F
:101ED00049D0EF01F5018FD076FDFDCF65916D936F
:101EE0000197E1F75F01FE010D938BCF3BD011E02D
:101EF0003ED06DB36D930197D9F70D9382CFCC246B
:101F0000DD2480E092E0689416E06FEF0EF06991B6
:101F10002ED00197D1F7E89474CF8F7F61E07F01D5
:101F2000F5010990199068D032960297D1F70F0108
:101F3000F501500163E0E03C7FE1F70719F058D06C
:101F4000F7015FCF0BD065E009D061E107D0F8CF92
:101F500077B770FDFDCFE199FECF0895F9DF67BF38
:101F6000E8950895039692838383039708953AD062
:101F7000DFBACEBA0894C01ED01E762FE09A6DB399
:0E1F8000671312FF08957DBBE29A1CBB089503
:101FC000687474703A2F2F6769746875622E636F36
:101FD0006D2F73696D2D2F7467792F00415652490B
:101FE00053505F3277B770FDFDCFE199FECF089572
:101FF00003D065E001D061E1F5DF67BFE8950895A2
:00000001FF
