:020000020000FC
:1000000012C0B3C0189518950994AFC098C0189540
:10001000A0C01895189518951895189518951895C5
:100020001895DDC0189500240FBEF4E0E0E6FEBF91
:10003000EDBF0292E036F00509F4EEE1E015F005BF
:10004000C1F791B69092600094B604BE87E088BB79
:1000500087E087BB80E085BB80E084BB80E082BB1B
:1000600088E381BB82E083BF81E08EBDF5BDE5D032
:1000700004D1809186009091870089569A47C1F0FB
:1000800080E48093880084E78093890080E48093F3
:100090008A0082E480938B0080E480938C008BE55F
:1000A00080938D0089E6809386008AE7809387009D
:1000B000F8D090FE04C093D097D09BD007C092FE9A
:1000C00002C097D08CD091FE01C098D066D184E553
:1000D00088BF89BF789483E085BF80E48BBFBB2451
:1000E0001B7E14FFFECFF4D0C0917B00D0917C002A
:1000F0002096A9F78AE0B816A0F3F89412FF01C081
:10010000FBBF7CD07BD07AD063C29FB68A9409F4BF
:10011000E1E99FBE18959FB68A9409F4E8E99FBE6D
:1001200018952C93E8E93F12EBE8832C24BC189532
:10013000E1E95F12E5E8852C3C9344BC18959FB635
:1001400040916200415008F40E7F409362009FBED0
:1001500018959FB6409163004395409363004F709C
:1001600011F4BF12BA949FBE18954CB55DB5829B31
:1001700018C04093780042E045BF50937900409109
:10018000630040937A0057FD189558B752FF1895B1
:100190009FB6439540937A009FBE1895BF12BA94BC
:1001A0001CC09FB6B3E0B5BFB091630057FD03C05C
:1001B000F8B7F2FDB395F09178004F1BF0917900FC
:1001C0005F0BF0917A00BF0B4030F6E95F07F0E07B
:1001D000BF07B0E018F73A0110619FBE189578ECA0
:1001E00090E5949AC2980EC074EB94E6939AC198E5
:1001F00009C070EA98E7959AC09804C07CE89CE82A
:10020000939AC29808B215B2E2B208BA15BAE2BA25
:10021000F2BF82B78032E8F368B3676068BB62B34D
:10022000677C62BB60E1F2BF82B78717E8F36A952B
:10023000D1F79A9551F7089500D000D000D09FE0F3
:1002400060E1F2BF81E088BF88B780FFFDCF6A958B
:10025000C1F79A95A9F708958091600081BFC6E81B
:10026000D0E080E890E00895E199FECF67B760FDA7
:10027000FBCF9FBB8EBB01960895EEDFF5DFE09AC2
:100280008DB38993CE38D1F70895E6DFF894ECDF8B
:1002900089918DBBE29AE19ACE38C9F7E199FECFF8
:1002A00078948FEF81BF0895000C111CEE1C8A9585
:1002B000D9F70895869FE12C969FE00CC11DDF1FA2
:1002C000879FE00CC11DDF1F979FC00DD11D0895B2
:1002D0001F7EC8E8D0E001C0AFDFB301FF9FEE246E
:1002E000C83831F460348BE57807A8F18FE113C08A
:1002F00080918800681780918900780770F7CA3864
:1003000011F482E208C080918A00681780918B0006
:10031000780718F380E2882E14FFFECF1F7EC301FA
:10032000080E191EEF1E861B970B80569F4F815497
:10033000914090F68A9481F783E0B6DF1992E992B2
:1003400058DFCA3851F27BDF54DFCC3811F077DF49
:1003500050DF9BDF22C01F7E80E1B816BF1EC09118
:100360008300D0918400C3018C1B9D0B18F4CC2713
:10037000DD270EC01F7760917F0070918000C0E480
:10038000D0E098DFCF3583E0D80710F0CFE5D3E099
:10039000C0937B00D0937C00E9C080918A0090914B
:1003A0008B0080938300909384006091880070910B
:1003B0008900681B790B05D080937F0090938000A3
:1003C00008958FEC97E001969F3F890721F0C0EEDA
:1003D000DCEF70DFC1F7089589D097FD02C072FD90
:1003E0006395C0916400D091650000906600809391
:1003F000640090936500609366008C1B9D0B600900
:10040000C0916700D0916800009069000694D7956C
:10041000C7950694D795C7958C1B9D0B6009C09115
:100420006700D091680000906900C80FD91F061EB0
:10043000C03075E0D70770E0070618F4D694C7946B
:1004400006C078E0071618F0072ED0E0C0E0C09391
:100450006700D093680000926900C0937400D09345
:100460007500009276008FE593E0D03072E00706C9
:1004700040F080EB91E0D03074E0070610F088ED9A
:1004800090E080937D0090937E008D2F002009F0F6
:100490008FEF809377000694D795C7950694D795EC
:1004A000C7950694D795C7950694D795C795C093D9
:1004B0006B00D0936C0000926D00C0936E00D093DF
:1004C0006F000092700014FD46CF4CC016FD31C085
:1004D000C0916B00D0916C0000906D007DDF1FD04B
:1004E000C0917400D091750000907600279670E15D
:1004F000F8948CB59DB5C80FD91FDBBDCABD78BFB8
:100500000092620001606091630078B7789408956A
:10051000C0916E00D0916F0000907000E7DF14FD75
:100520001ADF00FDFCCF0895C0E0D8EB8BE0082E69
:100530000895C0917100D09172000090730082B74D
:100540008F71D81B0F0A30F0C0308AECD80788E0D2
:10055000080608F4E9DFC0937100D093720000929E
:1005600073003ACFC0917B00D0917C0080917D00D8
:1005700090917E00C817D90708F0EC01CC15DD0575
:1005800008F0E6018FE593E08C1B9D0B91F01D7F39
:10059000CF17DF0781F0609161006C3020F4880F85
:1005A000991FCC0FDD1F1E7FC09580951E012C0169
:1005B00008951260F8CF1160F7CFF5BD80E488BFD1
:1005C000E8E982B3877C82BB88B3876088BB0895E3
:1005D000F4DF78941F7E14FFFECFBDDEC0917B0058
:1005E000D0917C002096B9F38FE0B816A0F3E5DF38
:1005F00080B7886080BF8BE18A95F1F7C0E9D0E0D1
:100600006E01F0936100106484E080936A008CDFD7
:10061000E3DE8ADFC0936700D093680080936900AF
:10062000F0936A00CBD0D8D081E085BD17FD0FC014
:1006300048D060D044D06ED044D08ED040D09AD034
:1006400040D0BCD03CD0C8D00EC0B7DFD0CF37D060
:10065000D5D037D0B9D033D09FD033D085D02FD09C
:1006600069D02FD04FD0BB20F9F08091690088303D
:1006700010FD00F5CF16DF0641F3E6018091610021
:100680008C3038F4839580936100259688ED90E056
:1006900004C01F7B6B968FE593E0C817D90710F055
:1006A0006C01C4CF6E01C2CFF89487DFC8DDA1DD35
:1006B0009BDDC5DD8DCFF0936100106408951F7D33
:1006C00001C0106203DF809177009091770000FFF6
:1006D000F2CF68B1612765FD08C089178F1F14FF2D
:1006E000F6CF8F9338DE8F91F0CF8A9581F716FF82
:1006F0000FCF089584E087B93798949810FD089536
:10070000959A089585E087B93798959810FD0895D2
:10071000949A0895379AF89488B3C09A98B328B3F6
:100720008913C19810FF2D7F322F11FF3260A8E38B
:100730007894089584E087B93798F89488B3C19A7B
:1007400098B328B38913C09810FF2E7F322F11FF62
:100750003160A8E37894089585E087B93798959833
:1007600010FD0895939A0895379A939810FD08956F
:10077000959A089584E087B93798F89488B3C19A18
:1007800098B328B38913C29810FF2B7F322F11FF23
:100790003460A8E37894089585E087B93798F89491
:1007A00088B3C29A98B328B38913C19810FF2D7FDC
:1007B000322F11FF3260A8E378940895379A939806
:1007C00010FD0895949A089584E087B93798949815
:1007D00010FD0895939A089585E087B93798F894A5
:1007E00088B3C29A98B328B38913C09810FF2E7F9C
:1007F000322F11FF3160A8E378940895379AF89466
:1008000088B3C09A98B328B38913C29810FF2B7F7E
:0C081000322F11FF3460A8E378940895A3
:00000001FF
